:020000040800F2
:10000000681D0020F96300081D60000821600008D9
:1000100000000000000000000000000000000000E0
:1000200000000000000000000000000081530008F4
:10003000000000000000000043530008BF4C00080F
:100040005F1E00080F220008256000081322000828
:1000500063220008A7240008CB320008B737000845
:10006000833E0008A343000803540008EF5700082C
:10007000F35900080B5A0008976100082F60000828
:10008000A36100089D6500089F650008000000004E
:10009000A1650008A3650008A5650008A76500081C
:1000A000A9650008AB650008AD650008416000085F
:1000B0004B600008AF65000800000000B165000853
:1000C00010B50400002C01D1012035E0A069002802
:1000D000FFD1A06F002805D10020742160542000BA
:1000E00000F012FF2420A0672068006801218843E7
:1000F00021680860200000F07DFA012801D101206C
:100100001AE0606A002802D0200000F00FFC20688E
:1001100040680A49014020684160206880682A21BF
:1001200088432168886020680068012101432068B5
:100130000160200000F06EFC10BD0000FFB7FFFF63
:10014000FEB582B00400A06F20286ED1029800286E
:1001500003D068468089002801D1012066E080250F
:100160006D01A068A84207D12069002804D1029837
:10017000C00701D5012059E07420205C012801D17D
:10018000022053E001207421605400278020275072
:100190002120A06700F026FF019068468089502149
:1001A00060526846808952216052A068A84205D1F9
:1001B0002069002802D13D00029E01E0029D3E0020
:1001C000742027545220205A00281ED004980090F2
:1001D000019B00228021200000F050FC002801D06B
:1001E000032023E0002D06D13088C005C00D216812
:1001F0008862B61C03E02878216888626D1C522052
:10020000205A401E52216052DCE704980090019B66
:1002100000224021200000F031FC002801D0032002
:1002200004E02020A067002000E0022005B0F0BD1F
:1002300070B504000D001600E06F20283CD1002DA1
:1002400003D0300080B2002801D1012035E0A06841
:1002500080214901884207D12069002804D1280063
:10026000C00701D5012028E07420205C012801D1BD
:10027000022022E0012074216054002020662068C2
:100280000E49884211D02068406800020DD5EFF376
:100290001080012181F31088216809688022D2042E
:1002A0000A4321680A6080F31088320092B2290064
:1002B000200000F057FC00E0022070BD0048004024
:1002C000FEB504002068C76920680568206880685A
:1002D0000090C34838400290029800280AD1B8061E
:1002E00008D5A80606D5606E002802D02000616EF1
:1002F000884774E10298002800D1A6E00120009907
:100300000140002904D1B7492940002900D19CE0CF
:1003100001003940C9B2002908D0E90506D5216895
:1003200008628021615801438022A150B9070DD590
:1003300000990140C9B2002908D002212268116247
:100340008021615804220A438021625079070DD52B
:1003500000990140C9B2002908D004212268116225
:100360008021615802220A438021625039070ED54C
:10037000A90604D400990840C0B2002807D008207C
:100380002168086280216158084380216050380547
:100390000BD5680109D58020000121680862802002
:1003A00020582021014380202150802020580028FF
:1003B0004AD0B80607D5A80605D5606E002802D039
:1003C0002000616E884780202058019040262068D8
:1003D00080683040002804D101982821014000297C
:1003E0002CD0200000F038FC206880680640002EE9
:1003F00020D0EFF31080012181F3108821688968F3
:10040000402291432268916080F31088206F002879
:100410000CD07548216F8863206F00F013FE002810
:1004200012D0206F216F896B88470DE0200000F00B
:1004300038FE09E0200000F034FE05E0200000F066
:1004400030FE002080216050C9E0206E012800D0DD
:10045000A5E0F80600D4A2E0E80600D49FE0102052
:100460002168086220688068400659D5206F0068BE
:100470004668300080B2002851D030005821615ABF
:1004800080B288424BD25A2026522020216F096820
:1004900009680140002939D1EFF31081012282F36C
:1004A000108822681368514A1A4023681A6081F341
:1004B0001088EFF31081012282F31088226892687D
:1004C00001239A4323689A6081F31088EFF3108127
:1004D000012282F310882268926840239A4323689D
:1004E0009A6081F31088E06700202066EFF31080A7
:1004F000012181F310882168096810229143226844
:10050000116080F31088206F00F072FD5820205A8F
:100510005A21615A411A89B2200000F0C3FD5EE001
:100520005820205A5A21615A461A5A20205A002827
:1005300034D0300080B2002830D0EFF31080012199
:1005400081F3108821680968294A0A4021680A60F5
:1005500080F31088EFF31080012181F31088216867
:100560008968012291432268916080F310882020DD
:10057000E067002020666066EFF31080012181F3C0
:10058000108821680968102291432268116080F365
:100590001088310089B2200000F084FD1FE0F802CD
:1005A0000AD50098400207D58020400321680862E0
:1005B000200000F0B7FD12E0380608D5280606D561
:1005C000A06E002802D02000A16E884707E07806C0
:1005D00005D5680603D5200000F086FBFFE7F7BDD0
:1005E0000F08000020010004D10C0008FFFEFFFFEF
:1005F000DFFEFFFFFEB506000027380069460870E1
:10060000AB4831688142FFD0B16832690A437369EF
:100610001343F169194332681268A64B13400B4328
:100620003268136032685268A34B1340F2681A4371
:1006300033685A60B26902923268824203D00299EA
:10064000326A0A430292316889689C4A0A400299D8
:100650001143326891603168994A914215D1AE498F
:1006600009688907890F002905D0022905D006D31A
:10067000032906D007E0012550E002254EE00425BD
:100680004CE008254AE0102548E03168A34A914231
:1006900016D1A14909680C220A40002A06D0042A72
:1006A00008D0082A04D00C2A06D007E03D0035E027
:1006B000022533E0042531E008252FE010252DE048
:1006C0003168974A914201D13D0027E03168954A4F
:1006D000914201D13D0021E0316881421DD18E4916
:1006E0000968C02212010A40002A0CD08021C900EA
:1006F0008A420CD0802109018A4206D0C02109011A
:100700008A4206D007E03D0008E0022506E0042505
:1007100004E0082502E0102500E010253168814240
:1007200058D12800C0B2002806D0022808D00428DA
:100730000ED0082810D012E001F032F9040012E0C7
:1007400079480068C00601D5B04C00E0B04C0AE022
:1007500001F0C6F8040006E08024240203E03C0017
:10076000012069460870002C00D1CFE07068032199
:100770004843844205D37068802149014843A04220
:1007800003D2012069460870C0E0200000218022C9
:100790005200002301F056F902000B007068400877
:1007A0000021801859417268002301F064F901901A
:1007B0000198C0218900884208D30198802149030B
:1007C000884203D201983168C8609FE001206946E1
:1007D00008709BE080242402F069A0424CD12800DC
:1007E000C0B2002808D001280AD002280CD0042862
:1007F00012D0082814D014E001F0D2F8040014E05C
:1008000001F0DAF8040010E047480068C00601D59E
:100810007E4C00E07E4C08E001F062F8040004E049
:1008200003E03C00012069460870002C6ED00220D5
:100830006043716849084018716801F06AF980B234
:1008400001900198102813D3019880214902884211
:100850000ED2019988480840019949084907490F73
:10086000014368464180684640883168C8604DE071
:1008700001206946087049E02800C0B2002808D06D
:1008800001280AD002280CD004281DD008281FD027
:100890001FE001F085F804001FE001F08DF804006E
:1008A0001BE021480068C0060CD5584C0BE000BF87
:1008B00000480040F369FFEFFFCFFFFFFFF4FFFFA9
:1008C00000380140524C08E001F00AF8040004E04E
:1008D00003E03C00012069460870002C16D07068C7
:1008E00040082018716801F014F980B20190019855
:1008F000102808D3019880214902884203D2019828
:100900003168C86002E00120694608707766B76602
:1009100068460078FEBD00BF4C1002400044004015
:10092000004C0040005000400010024000B524215F
:10093000415CC90707D501684968894A0A40816A4C
:100940001143026851602421415C890707D5016881
:100950004968B84A0A40C16A1143026851602421BB
:10096000415C490707D501684968B34A0A40016BF1
:100970001143026851602421415C090707D50168D1
:100980004968AE4A0A40416B114302685160242114
:10099000415CC90607D501688968A94A0A40816B8C
:1009A0001143026891602421415C890607D50168E2
:1009B0008968A44A0A40C16B1143026891602421EE
:1009C000415C490614D5016849689F4A0A40016C98
:1009D000114302685160016C80225203914207D199
:1009E00001684968994A0A40416C114302685160A4
:1009F0002421415C090607D501684968944A0A40E8
:100A0000816C11430268516000BD000000093D0087
:100A10000024F4007CB50500002480202C5000F058
:100A2000E1FA06002868006800070CD589480090A4
:100A30003300002280218903280000F01FF80028DD
:100A400001D0032017E02868006840070CD58148D2
:100A50000090330000228021C903280000F00EF826
:100A6000002801D0032006E02020A867E8672C6654
:100A700074202C54002076BDF0FF0000F4B5040073
:100A80000D001F00069E2068C0692840A84201D1C1
:100A9000012000E000206946097888425DD10020ED
:100AA000C0438642EFD000F09DFAC01B864201D3BE
:100AB000002E21D1EFF31080012181F310882168ED
:100AC00009687E4A0A4021680A6080F31088EFF3C3
:100AD0001080012181F310882168896801229143E7
:100AE0002268916080F310882020A067E0670020D2
:100AF00074216054032031E0206800684007C2D5AB
:100B0000802000012168C96901400029BBD021680B
:100B10000862EFF31080012181F3108821680968D1
:100B2000664A0A4021680A6080F31088EFF310805B
:100B3000012181F31088216889680122914322688C
:100B4000916080F310882020A067E06780216050CA
:100B5000002074216054032000E00020F2BD00005A
:100B6000FFFFFDFFF0B50300596558201A525A20C7
:100B70001A5200205866802464019D68A5420AD15B
:100B80001D69002D03D14E4D5C269D5324E0FF25A9
:100B90005C269D5320E09D68002D0AD11D69002D23
:100BA00003D1FF255C269D5316E07F255C269D53CF
:100BB00012E09D6880267605B5420AD11D69002D98
:100BC00003D17F255C269D5306E03F255C269D537F
:100BD00002E005005C269D53802558512225DD67E3
:100BE000EFF31085012686F310881E68B76801268A
:100BF0003E431F68BE6085F310889D68A54205D1FD
:100C00001C69002C02D12F4C5C6601E02E4C5C6606
:100C100074241855EFF31080012484F310881C68A5
:100C2000246890256D0025431C68256080F310889A
:100C30000020F0BDFFFFFEFFFFFFFBFFFF7FFFFF78
:100C4000FFEFFFFFFFDFFFFFFFFFEFFFFFFF9FFF54
:100C5000FFFFF7FFFFFFFF0100B5EFF31081012257
:100C600082F3108802681268184B13400268136000
:100C700081F31088EFF31081012282F3108802685B
:100C8000926801239A4303689A6081F31088016E89
:100C900001290CD1EFF31081012282F31088026840
:100CA000126810239A4303681A6081F31088202188
:100CB000C16700210166416600BD00005FFEFFFFC5
:100CC000FF010000DD0D0008170D0008DFFEFFFF2B
:100CD00038B50400A56A00205A2168525221685292
:100CE000280000F0DEF931BD10B50400EFF31080EC
:100CF000012181F31088216809684022914322680C
:100D0000116080F310882020A0670020A0662000DA
:100D100000F056FF10BD70B504005C20255AE06F4E
:100D2000222854D12068406A060030002900014082
:100D3000606D0170606D401C60655A20205A401E35
:100D40005A2160525A20205A002846D1EFF31080D1
:100D5000012181F3108821680968524A0A402168FC
:100D60000A6080F31088EFF31080012181F310886E
:100D700021688968012291432268916080F310887C
:100D80002020E06700206066216E01291BD12066CB
:100D9000EFF31080012181F3108821680968102287
:100DA00091432268116080F3108810202168C9697E
:100DB0000140002901D0216808625820215A2000F2
:100DC00000F070F909E0200000F0FCFE05E020686A
:100DD0008069082101432068816170BDF8B5040075
:100DE0005C20255AE06F222854D12068406A060012
:100DF000606D0700280030403880606D801C6065A1
:100E00005A20205A401E5A2160525A20205A002847
:100E100046D1EFF31080012181F310882168096821
:100E2000204A0A4021680A6080F31088EFF310809E
:100E3000012181F310882168896801229143226889
:100E4000916080F310882020E06700206066216EAA
:100E500001291BD12066EFF31080012181F3108856
:100E600021680968102291432268116080F310887C
:100E700010202168C9690140002901D02168086259
:100E80005820215A200000F00DF909E0200000F060
:100E900099FE05E02068806908210143206881618E
:100EA000F1BD0000DFFEFFFF80B547484749016004
:100EB000E1214902416000218160C16001610C2291
:100EC00042618161C16101624162FFF7F9F8002866
:100ED00001D000F0B7FF01BD80B53D483D4901603C
:100EE000E1214902416000218160C16001610C2261
:100EF00042618161C16101624162FFF7E1F800284E
:100F000001D000F09FFF01BD10B586B0040014228F
:100F10000021684600F099FF20682C49884227D1BB
:100F20002D4801688022D2010A43026001202B492A
:100F30000A6802430A600968084005900598C020C5
:100F4000C000009002200190002002900320039036
:100F5000042004906946A020C00500F081FF002213
:100F600003211B2001F0FEF81B2001F005F929E008
:100F700020681849884225D11948016880229202C8
:100F80000A430260012015490A6802430A600968A1
:100F90000840059005980C20009002200190002048
:100FA000029003200390042004906946A020C0050D
:100FB00000F056FF002203211C2001F0D3F81C2072
:100FC00001F0DAF806B010BD7016002000380140BC
:100FD000F416002000440040341002402C1002405F
:100FE0003810024001480068704700BF20190020F7
:100FF00030B50100002002002523CB5C022B05D078
:101000000423CB632423C85401201AE00B681B6817
:101010000E24A3430C6823600B681B680124A343C0
:101020000C682360012344240C5D1C2525401C0012
:10103000AC400D6C6C6025240B552423C854100063
:10104000C0B230BD38B50400002005002521615C28
:10105000022904D00420E063012005001EE021687D
:1010600009680E22914322681160216809680122F3
:1010700091432268116001214422A25C1C23134089
:101080000A009A40236C5A602522A15424216054FE
:10109000A06B002802D02000A16B88472800C0B2B6
:1010A00032BD70477047F1B4016842184168480882
:1010B000131800988068C9071ED5494640181BE0E0
:1010C0001778521C0770401C761EF9D1002C13D0E3
:1010D0001678521C89080D40032D01D11578521C39
:1010E000290271184D424119A41C05D00D78491CE4
:1010F0000570401C641EF9D19A420FD01178521C21
:10110000032503260E4002D11678F61C521C0C094A
:101110000F2CD9D114780F34521CD5E700980C301D
:10112000F2BC704770473E00F0B585B00400002C5B
:1011300001D10120C7E2AE4800680C2101400391B3
:10114000AB48006880214902084002902078C0071F
:101150005ED50398082807D003980C280DD1029873
:1011600080214902884208D1A248006880034FD5F7
:10117000606800284CD10120A5E260688021490206
:10118000884206D19B480168802252020A430260CD
:101190001FE06068A021C90288420BD19548016810
:1011A0008022D2020A4302600168802252020A436E
:1011B00002600EE08F4801688F4A0A4002600168B1
:1011C0008022520211400491049901688B4A0A401E
:1011D0000260606800280DD0FFF704FF0500854815
:1011E0000068800314D4FFF7FDFE401B6528F6D38A
:1011F000032068E2FFF7F6FE05007E4800688003E2
:1012000006D5FFF7EFFE401B6528F6D303205AE210
:101210002078800779D5E068019020210198084066
:10122000002807D07348026811430160019820210B
:10123000884301900398042805D003980C2832D1E4
:10124000029800282FD16B480168490704D50199FD
:10125000002901D1012036E2BC490A68BC4B134089
:10126000226912021A430A60016809229143019A15
:101270000A43026000F034FBB6495D4A1268120965
:101280001207120F895CC840B3490860B348006870
:1012900000F080FF6946087068460078002834D066
:1012A000684600780FE2019800281CD0514E306843
:1012B00009218843019901433160FFF793FE05003E
:1012C0003068400706D4FFF78DFE401B0328F7D394
:1012D0000320F8E19D4801689D4A0A4021690902FE
:1012E0001143016011E0434E3068012188433060B2
:1012F000FFF778FE05003068400706D5FFF772FE5D
:10130000401B0328F7D30320DDE12078C00677D502
:101310000398002835D137480068800504D5E06976
:10132000002801D10120CEE188480168AD4A0A4079
:10133000616A1143016001680902090A226A120602
:101340000A4302600120616A490B491C88408021E0
:10135000090248437F49264A126812091207120FF0
:10136000895CC8407C4908607C48006800F012FF36
:101370006946087068460078002841D068460078C1
:10138000A1E1E069002821D01A4E3068802149008F
:1013900001433160FFF726FE05003068800506D462
:1013A000FFF720FE401B0328F7D303208BE167489B
:1013B00001688C4A0A40616A1143016001680902B0
:1013C000090A226A12060A43026019E0094E3068CF
:1013D000BE4901403160FFF705FE05003068800519
:1013E0000ED5FFF7FFFD401B0328F7D303206AE16A
:1013F0000C10024000100240FFFFFEFFFFFFFBFF4A
:101400002078000726D56069002811D0B04E3068DA
:10141000012101433160FFF7E5FD050030688007D9
:1014200018D4FFF7DFFD401B0328F7D303204AE160
:10143000A74E3068012188433060FFF7D3FD0500D7
:101440003068800706D5FFF7CDFD401B0328F7D392
:10145000032038E12078400700D48AE00020694664
:101460004870802040059B4909680140002906D149
:1014700098490A6810430860012069464870964FF1
:101480008026760038683040002810D13868304314
:101490003860FFF7A7FD050038683040002806D106
:1014A000FFF7A0FD401B6528F6D303200BE1A068E1
:1014B000B04204D1864801680E43066024E0A0686B
:1014C000002809D182480168804A0A400260016808
:1014D000824A0A40026017E0A068A021C900884241
:1014E00009D17B4801688022D2000A43026001686A
:1014F0000E43066008E076480168744A0A400260BC
:101500000168764A0A400260A06800280ED0FFF702
:1015100069FD05006E480068800521D4FFF762FD73
:10152000401B6F498842F5D30320CCE0FFF75AFDFA
:10153000050067480068800512D5FFF753FD401B82
:1015400067498842F5D30320BDE000BF0410024084
:10155000FFE0FFFFE8630008440300204003002091
:1015600068464078012804D15A4801685D4A0A401B
:1015700002602078800637D5A06900281BD05A4E1B
:101580000121306808433060584802681143016007
:1015900057480168802292010A430260FFF722FD4A
:1015A0000500306880071FD4FFF71CFD401B03288F
:1015B000F7D3032087E04C4E306801218843306028
:1015C0004B4801684B4A0A400260FFF70BFD0500DB
:1015D0003068800708D5FFF705FD401B0328F7D3C7
:1015E000032070E0FF1FFFFFA06A00286AD0039865
:1015F0000C2848D0A06A022833D13F4F3868B2493E
:1016000001403960FFF7EEFC04908026B60438688C
:101610003040002807D0FFF7E5FC0499401A032862
:10162000F3D303204FE0A9480168A94A0A40E16AC0
:101630001143226B0A43616B1143016038688021BA
:10164000490401433960FFF7CDFC0500386830409C
:10165000002837D1FFF7C6FC401B0328F6D3032030
:1016600031E0254E3068984901403160FFF7BAFCFF
:1016700005003068800125D5FFF7B4FC401B032826
:10168000F7D303201FE0A06A012801D101201AE04E
:101690008E48006802900298802149020840E16A61
:1016A00088420DD10298F02189030140206B8142CC
:1016B00006D10298C02109040140606B814201D02B
:1016C000012000E0002005B0F0BD00BFFFFEFFFFDD
:1016D000501002403810024000700040FFFBFFFF36
:1016E00089130000FFFFFFEF081002403410024092
:1016F00020000140FFDFFFFF00100240F2B50400B0
:10170000002C01D10120DEE0724D28680100C907DC
:10171000C90F0098814217D2286801218843009997
:1017200001432960FFF75EFC070028680100C90734
:10173000C90F0098814207D0FFF754FCC01B6649CF
:101740008842F2D30320BEE02078800706D55F48A8
:101750000168F0229143A2680A4302602078C00722
:1017600067D56068022805D15C480068800319D4F9
:101770000120A8E06068032805D15848006880016E
:1017800010D401209FE06068012805D1534800680B
:10179000400707D4012096E050480068800501D436
:1017A000012090E0494E306803218843616801437D
:1017B0003160FFF717FC0700606802280CD1306821
:1017C0000C210140082934D0FFF70CFCC01B424912
:1017D0008842F4D3032076E0606803280CD1306897
:1017E0000C2101400C2924D0FFF7FCFBC01B3A4917
:1017F0008842F4D3032066E0606801280CD1306889
:101800000C210140042914D0FFF7ECFBC01B324926
:101810008842F4D3032056E030680C2101400029AF
:1018200007D0FFF7DFFBC01B2B498842F4D303200E
:1018300049E00126009829683140884215D228687D
:1018400001218843009901432960FFF7CBFB070082
:10185000286830400099884207D0FFF7C3FBC01BBF
:101860001D498842F4D303202DE02078400706D597
:1018700016480168564A0A40E16811430160207821
:10188000000707D511480168524A0A402169C9007A
:101890001143016000F024F84F490C4A1268120904
:1018A0001207120F895CC8404C4908605B48006809
:1018B00000F070FC01000800C0B2002802D008004F
:1018C000C0B200E00020F2BDFFFFFFFE0C1002409E
:1018D000FFFF02FF002002408913000000100240B9
:1018E000F8B52E4806680C213140042904D0082997
:1018F0000AD00C290AD040E049480068C00601D54A
:10190000484800E0484845E0484843E04849B20CB0
:101910001207120F895C0C00B10D8907890F491C51
:101920000D000068C0030BD5200000213F4A0023B2
:1019300000F088F82A00002300F09DF807001AE064
:1019400037480068C0060BD520000021354A002327
:1019500000F078F82A00002300F08DF807000AE074
:1019600020000021304A002300F06CF82A000023F8
:1019700000F081F8070038000CE02E480068400BAA
:101980004007400F009001200099491C88408021A9
:1019900009024843F2BD1148006870470C1002402C
:1019A00080B5FFF7F8FF2449244A1268120A52074B
:1019B000520F895CC84002BD80B5FFF7ECFF1E499D
:1019C0001E4A1268D20A5207520F895CC84002BDF3
:1019D000FFF8FFFFFFC7FFFFE86300084403002094
:1019E00010B40F220260154A13689B079B0F4360D7
:1019F0001368F0241C408460E023DB0014681C4062
:101A0000C4601268D208134003610D4A12681300C3
:101A1000DB07DB0F0B6010BC7047000040030020A9
:101A20000010024000093D000024F40000127A007A
:101A3000F864000804100240486500080C100240D9
:101A40000020024030B4434351435D18010C0C00A8
:101A5000130C5C432D1980B2434392B251430024CE
:101A6000C918644124040B04090C09195043C01817
:101A7000694130BC7047124224D0994228D970B5D0
:101A800000251B4202D00C00002109E000240126A1
:101A900049186441944200D3A41A7641F8D3310026
:101AA000012601E0764109D2001864416D41A41A73
:101AB0009D41F7D2A4185D41B619F5D3300022003C
:101AC0002B0070BD1B42D8D108B500F09FFB08BDAC
:101AD00001D19042D3D202000B00002100207047B8
:101AE000F446002804D4494200F013F8404260470D
:101AF0004042002905D45FD000F00BF84042494233
:101B00006047494200F005F84942604703460B43ED
:101B1000E6D40022030A8B420BD203098B4219D26E
:101B200043088B422ED2411A00D201465241104640
:101B30007047FF2209023FD012068B4205D31212D2
:101B400009028B4201D31212090203098B4219D3F5
:101B500000E0090AC3098B4201D3CB01C01A5241EC
:101B600083098B4201D38B01C01A524143098B4236
:101B700001D34B01C01A524103098B4201D30B011F
:101B8000C01A5241C3088B4201D3CB00C01A524144
:101B900083088B4201D38B00C01A524143088B4209
:101BA00001D34B00C01A5241884200D3401A52411F
:101BB000CFD201461046704708B500F029FB08BD9A
:101BC0007047430038B504005748216802689142C5
:101BD00021D15649FE2252008A180B7915682B70C4
:101BE00013685B1C1360802292008A1813885B1CA8
:101BF00013801288FA235B009A4203D101228123C9
:101C00009B00CA544A4A13885B1C13800122091D99
:101C1000FEF70EFB0FE047482168026891420AD1A7
:101C200045490A784B680D895A550A89521C0A8120
:101C30000122FEF7FDFA31BD80B53C48411DFE2270
:101C4000520081500022802189004252011D130060
:101C50000B703A4BC25281239B00C254012232487E
:101C6000FEF7E6FA01BD38B505000C00FA239B002B
:101C7000220092B229002C48FEF762FA31BDFEB56F
:101C800007000E00052100226C46200000F0C2FA79
:101C90000A226946300080B200F0E4FA0521684665
:101CA00000F07FFC234DFA246400230005226946DE
:101CB0002800FEF745FA2300320092B239002800CE
:101CC000FEF73EFAF7BD00B51849802080000818DD
:101CD0000288002A0FD0194A891802880B889A4274
:101CE00001D102200CE002880B889A4208D00088BB
:101CF0000880012004E00088002801D10020FFE7CF
:101D000000BD38B5094C651DFA214900280000F0D6
:101D100075FB002080218900605208496052FE2036
:101D20004000255031BD000070160020000000204A
:101D300060190020F4160020980300200202000021
:101D400080B500F0EDFC00F01EF800F0FFFCFFF79E
:101D5000ABF8FFF7C1F800F041FDFFF76DFF01227E
:101D60002E492F48FEF764FA0C212E48FFF787FF13
:101D700000F0B8FD00F0BEFD00F0D0FD00F04FFE19
:101D800001F008F8FEE738B59CB0382100242200A5
:101D90000EAD280000F03EFA142122006D46280006
:101DA00000F038FA2421220005AD280000F032FAB4
:101DB0001D4801681D4A0A40802109011143016044
:101DC0000A200E9001251195102012901395189459
:101DD0000EA8FFF7A9F9002801D000F033F80F2072
:101DE0000090019502940394049400216846FFF743
:101DF00085FC002801D000F025F8232005900794E9
:101E0000089480208002069005A801F009F80028B7
:101E100001D000F017F81DB030BD0000980300207D
:101E2000F41600203802002000700040FFE7FFFF9A
:101E300010B5040020688021C905884201D101F055
:101E4000EBF810BD00B572B6FEE710B5040008004F
:101E500011000200200000F0DDF9200010BDFEE7B7
:101E6000FEB5020000230020019000240868D8403D
:101E7000002800D1FFE0012508682E009E400640A2
:101E800001960198002800D1F3E00326486830400D
:101E9000012803D048683040022820D19768BC460A
:101EA0001F00022047433000B84067468743009731
:101EB000C86884461F00022047436046B840009F20
:101EC00038430290029890605768280098408743F2
:101ED0004868000928409840384304005460486826
:101EE0003040032814D0D768BC461F000220474367
:101EF0003000B840674687430097886884461F00D3
:101F0000022047436046B840009F38430400D46035
:101F100048683040022824D1D80804277843101894
:101F2000006A0290029F00970F208446180047071E
:101F30007F0F042047436046B840009F87430097C7
:101F400008698446180047077F0F0420474360460E
:101F5000B840009F38430400D8080427784310187D
:101F600004621768BC461F00022047433000B84097
:101F70006746874300974868304084461F00022028
:101F800047436046B840009F3843040014604868E7
:101F9000C027BF020740002F6BD0374807682F4388
:101FA0000760364884469F08042047436046C0596E
:101FB00000900F27BC461F003000384004277843AC
:101FC000674687400098B843A027FF05BA4201D171
:101FD000002517E0314CA24214D0314CA24201D16D
:101FE00002250FE02F4CA24201D135000AE02E4C11
:101FF000A24201D1042505E02C4CA24201D10525C5
:1020000000E006251C00264004246643B540054335
:102010001A489C08042674430551254C2068019EEB
:10202000B0434E68F60302D50500019828432060AE
:10203000204D2C68019EB4434E68B60302D52000A3
:10204000019C04432C601C4D2868019EB0434E68DF
:10205000F60202D50400019820432860174D2C6831
:10206000019EB4434E68B60202D52000019C044391
:102070002C605B1CFAE6F7BD3410024008000140FA
:1020800000B51300DBB2002B03D00B009BB28361C1
:1020900002E00B009BB2836200BD00000004005010
:1020A00000080050000C005000100050001C0050B0
:1020B0000004014004040140080401400C040140F4
:1020C00000B5010049B2002905D40121C206D20E93
:1020D00091402D4A116000BDF0B5020052B2002AB5
:1020E0001CD40322294B040064B2A40804256C43C9
:1020F0001C59FF251600064008277E43B540AC4317
:102100008D01EDB20240082672439540254302003E
:1021100052B29208042462439D5022E00F241C4ACC
:10212000032305006DB22540083DAD080426754324
:10213000060076B23440083CA408042674431659BD
:10214000FF27BC461C00044008277C436746A74085
:10215000BE438C01E4B2034008277B439C403443D8
:102160005451F0BD70B505000C0016002100280088
:1021700040B2FFF7B1FF70BD10B50400200040B2BF
:10218000FFF79EFF10BD000000E100E000E400E06A
:102190001CED00E0F1B588B0002402940194002207
:1021A00008990F20FFF7DEFF0F20FFF7E5FF134828
:1021B000016801220A430260694603A8FFF710FC88
:1021C000FFF7EEFB070038000D49FFF7A2FC050002
:1021D0006D1E0C4E8020C00530600B48F0607560AD
:1021E0003461B460300000F023FF002803D13000D8
:1021F00000F044FF00E0012009B0F0BD38100240BB
:1022000040420F00CC170020E70300007047FEE7B4
:102210007047FEE71206130A1A43130C1A4300BF55
:10222000094205D0830705D00270401C491EF9D130
:10223000704700001300103906D330B414001500A5
:1022400010393CC0FCD230BC490700D30CC000D5CB
:1022500004C0890002D30280801C002900D50270CE
:102260007047FEE7FEB504000F0016003D00022E89
:1022700001DB242E02DB0020287022E0019401986B
:10228000002801D5604204006C4800902000310015
:10229000FFF73CFC0098405C28706D1C200031006A
:1022A000FFF734FC0400002CEED10198002802D581
:1022B0002D2028706D1C00202870691E380000F049
:1022C00001F8F7BD00B5884207D20B781A000378F1
:1022D0000B70491E0270401CF5E700BDFFB50020E1
:1022E0000100009A029B040005002E006F46BF8883
:1022F000B6B2BE421AD216781F78BE4213D106007B
:102300000100040026006F46BF89B6B2BE420BD260
:1023100016782700BFB2DF5DBE4205D1491C6D1C97
:10232000521C641CEEE7521C6D1CDEE708006D4673
:10233000AD8980B2A84201D1012000E0002004B0A4
:10234000F0BDFFB50100002000900600070002006C
:102350000B00029C05002E006F46BF88B6B2BE423D
:102360001AD21E782778BE4211D1521C029E170045
:10237000FFB2F61934001600F6B26F46BF89B6B246
:10238000BE4206D1280080B20818C01C05E0060035
:1023900032005B1C6D1CDEE7002004B0F0BDFFB511
:1023A0000100002000900600070002000B00029CC4
:1023B00005002E006F46BF88B6B2BE421BD21E7803
:1023C0002778BE4212D1521C029E1700FFB2F619A6
:1023D00034001600F6B26F46BF89B6B2BE4207D1CE
:1023E0001000C0B246429819401C05E006003200B9
:1023F0005B1C6D1CDDE7002004B0F0BD30B5002390
:102400001A0014000D00A4B2ADB2AC4205D21C00FB
:102410001500ADB24455521CF3E730BD70B506004F
:102420000C001500290089B22000FFF7E7FF0A22FF
:1024300021003000FFF716FF70BD000014030020DC
:10244000F3B583B000221400082101AD2800FFF786
:10245000E1FE01AD039E002E16D01027300039009A
:10246000FFF754FB009100980A2803DA00983030F7
:10247000285502E0009837302855641C3000390098
:10248000FFF744FB0600E6E72100012908DB681896
:10249000401E0078049A12194B42D054491EF4E7AA
:1024A000012005B0F0BDFEE700B502000020924B10
:1024B0001B689B1A8B4201D3012000E0002000BD65
:1024C00080B58E4800F0BAF8012002BD1CB5072186
:1024D00000226C462000FFF79DFE0122072168467E
:1024E00000F0D8F8012362220021684600F03FFA8C
:1024F000834919200870002300228248006800F0F8
:1025000057FF012016BD01207047012070470120B0
:10251000704700B57C48018900290ED001894289A5
:10252000914201D1022009E001894289914203D000
:1025300001894181012001E000E0002000BD10B5CB
:10254000714CA1896068FFF759FF002020816081EC
:10255000012010BD38B500252800C0B205281EDABC
:1025600069486A4C2900C9B21022514361180B898D
:102570002900C9B21022514361184A680189406894
:10258000FFF7ACFE012808D12800C0B21021484353
:102590002018C0688047012801D06D1CDCE70120AD
:1025A00032BDFEB506000F0005210024220001AD5A
:1025B0002800FFF72FFE200069460880300001F058
:1025C000F3F80500310001A801F0F6F82000010041
:1025D000C9B23A0089B292B2914205D230210200CA
:1025E000D2B2B154401CF2E72000C0B2290080B240
:1025F00089B2884214D2380080B230182100C9B2A2
:102600004A428018401E01A92A0092B2891822006D
:10261000D2B25342C918491E09780170641CE3E71D
:10262000F7BD80B53A493B480088888000230022E6
:102630003948006800F0BCFE012002BD10B504005E
:102640000023002221003448006800F0B1FE012080
:1026500010BD7CB50600052100226C462000FFF766
:10266000D9FD0A226946B088FFF7FCFD05216846BE
:10267000FFF797FF294DFA246400230005226946DD
:102680002800FDF75DFD2300B28831682800FDF7C2
:1026900057FD73BDF8B507000E0015000024009427
:1026A00019481A492A00D2B210235A438A181389AA
:1026B0008C462A00D2B210214A43614689184A68E2
:1026C00001894068FFF76BFE0100002901D100205D
:1026D0000FE02000C0B2320080B292B2904207D226
:1026E0002000C0B2085C2200D2B2B854641CF0E7EB
:1026F0000120F2BD00000000EC180020A80300201B
:10270000641900201C1900209803002048030020B1
:10271000300200206019002018190020F416002053
:1027200010B500240848016840220A4302600020D6
:10273000FFF730FD002802D00120040001E001F085
:1027400075F82000C0B210BD00200240F8B586B078
:102750001422002101A8FFF778FB04211D4802681C
:102760000A43026002681140009100990124016847
:102770002143016001682140009100990221026813
:102780000A4302600068014000910098C0256D0076
:10279000A027FF05002229003800FFF771FC0E4E2C
:1027A000002203213000FFF76BFC01950294002505
:1027B0000395049501A93800FFF752FB032001900F
:1027C00002940395049501A93000FFF749FB07B077
:1027D000F0BD00BF2C10024000040050F8B590B0CE
:1027E000142200210BA8FFF730FB042200216846C9
:1027F000FFF72BFB2822002101A8FFF726FB364D0F
:102800003648286000246C607F20A860FF20E860C4
:102810002C616C61AC61EC61280001F01FF80028AC
:1028200001D0FFF70FFB0BA80A2101703227477078
:10283000210081700E940F9400220BA9280001F052
:102840007DF8002801D0FFF7FDFA01266846310027
:10285000017031004170310081702100C17000228F
:102860006946280001F002F9002801D0FFF7EAFAD2
:1028700001A80A2101704770142181700294049408
:102880000594802109060691079408942021465456
:10289000802040000A90002201A9280001F072F96E
:1028A000002801D0FFF7CEFA11B0F0BD10B504003A
:1028B00020680A4988420DD1094801688022D20265
:1028C0000A430260002203210220FFF74BFC022092
:1028D000FFF752FC10BD0000341800200028004013
:1028E000501002403B483C49C1603C21018301211A
:1028F0008176704739483A490160C821416000211A
:1029000001720122C260017427214182354941616F
:102910003549016235490978416270473448354983
:102920000160C8214160002101721421418103210D
:10293000C1603149016131494161704780B530481A
:102940008168012912D14168006801F0FEFA01286E
:102950000CD12C480078002808D12B49172008708A
:10296000002300222948006800F022FD01BDFFB5C8
:1029700083B0214E306800F017FF029000240194CC
:102980003568019A02992800FFF744FC072703984D
:10299000009035683A000099280001F0F5FC746059
:1029A000B460164C06982060124DC8212800FFF72D
:1029B00025FD0F480560C82141606946097C017208
:1029C0006946898A41810121C1600661446107B07D
:1029D000F0BD0000BC020020386500080C18002083
:1029E000541400202063000848020020FA0300204D
:1029F000581800201C150020B0020020AC02002056
:102A0000D418002063190020641900201C1900202C
:102A1000944B0360AF4B0B6080231360704780B50D
:102A20009CB000220121322000F08CFC8E4908600D
:102A300000220821052000F085FC8C49086015A8BB
:102A40008B491C2201F086FC002115A800F0A7F993
:102A5000A14908600EA8A1491C2201F07BFC0021BD
:102A60000EA800F09CF99E49086007A89D491C2209
:102A700001F070FC002107A800F091F99A49086064
:102A80006846A9491C2201F065FC0021684600F057
:102A900086F9AE4908601DB000BDF1B50027AC490C
:102AA00038000870704E00230022306800F080FC6F
:102AB00001F070FAA74C822080002518002229001E
:102AC000306800F01DFD2878002834D0012838D067
:102AD000022843D0032846D004283AD0052847D0FE
:102AE00006284AD007284DD0082850D0092853D0AE
:102AF0000A2856D00D2859D00E285CD00F285FD058
:102B0000102862D0112865D0122800D192E0132835
:102B100065D0142868D015286BD016286ED01728D9
:102B200071D0182877D019287AD01A287DD021287A
:102B300000D191E090E001F06EFA874800F05FF973
:102B40008AE0854800F05BF90221012001F08EFA4D
:102B500082E00221042001F089FA7DE003210220B5
:102B600001F084FA78E00521032001F07FFA73E098
:102B70000621052001F07AFA6EE00721062001F017
:102B800075FA69E00821072001F070FA64E0092174
:102B9000082001F06BFA5FE00A21092001F066FAD3
:102BA0005AE00D210A2001F061FA55E00E210D20B6
:102BB00001F05CFA50E00F210E2001F057FA4BE0D3
:102BC00010210F2001F052FA46E01121102001F0EF
:102BD0004DFA41E01321112001F048FA3CE01421A4
:102BE000132001F043FA37E02121142001F03EFACE
:102BF00032E01621152001F039FA2DE021211620AE
:102C000001F034FA28E001205449087018211720F7
:102C100001F02CFA20E02121182001F027FA1BE016
:102C20001A21192001F022FA16E021211A2001F0C0
:102C30001DFA11E0122001F025F9012808D14848B9
:102C4000876001F01BFB12214648FFF718F802E0ED
:102C50002078401C2070FFE7FFF770FE322000F064
:102C6000CEF825E7781700201C190020181900203D
:102C700028620008F1B582B0002738003A49096897
:102C800000913221009801F060F90128F9D136480D
:102C9000006800902F4C3548251838002870FFF741
:102CA00012F80228EDD1324E30880028E9D0822077
:102CB0008000205C01F054F92870A0780028E0D052
:102CC00001F008FBFFF7ADFCFFF71BF83800308080
:102CD000D7E70000FC0F0020F8180020446200082D
:102CE000FC180020606200080019002070B5060082
:102CF00000201D4C256832212800FFF7D5FB012854
:102D00000DD120680500FFF704FC022807D11948FF
:102D10000089002803D0FFF71DFCFFF710FC0A20F4
:102D200000F06DF8E7E700007C6200081CB50400C5
:102D30000022D24369461048006800F0E1FB684673
:102D4000FFF787FC012000F05AF8F1E70419002092
:102D500064190020000000201027000063190020E3
:102D6000D41800200C630008EC18002009020000B1
:102D700060190020980300201819002000B50100F8
:102D800000200A0012B2842A03D00A0012B2D21C18
:102D9000801800BD80B501F027FC002002BD38B5C9
:102DA00084B004000D006069002813D0A0690028D9
:102DB00010D00820205EFFF7E1FFA1690291616950
:102DC000019100902B0022692168606801F0EAFA05
:102DD000039011E00820205EFFF7D0FF03A90191C6
:102DE00000902B00226992B22168606801F012FB0A
:102DF000012801D0002000E0039805B030BD70B577
:102E00000400012620003100FEF783FE0500002D9E
:102E100001D02E00FFE7300001F0BEFB002070BDA6
:102E2000FEB504000020694608702078800600D4B2
:102E30008EE02078800680204005694909680140BD
:102E4000002906D166490A681043086001206946D6
:102E5000087080277F00634D28683840002811D112
:102E6000286838432860FEF7BDF80290286838408B
:102E7000002807D1FEF7B6F80299401A6528F5D365
:102E80000320ACE058480068C02189030140606815
:102E9000C0229203024091420BD0C020800262689F
:102EA0000240824205D150480068800301D50120CC
:102EB00095E04E4DC026B60228683040019001983A
:102EC000002829D0019861683140884224D02078B8
:102ED000800621D528684649014001912868802153
:102EE000090301432960286842490140296001988B
:102EF000286001980740002F0ED0FEF773F802906B
:102F00002868800508D4FEF76DF80299401A3A49FE
:102F10008842F5D3032062E060683040B04209D1B6
:102F200031480168354A0A406168C0239B030B4061
:102F300013430360286861680E4006432E606846AC
:102F40000078012804D1264801682D4A0A40026011
:102F50002078C00706D52B48016803229143A26858
:102F60000A4302602078800706D5264801680C22B3
:102F70009143E2680A4302602078400706D5214861
:102F80000168214A0A402169114301602078000745
:102F900006D51C4801681D4A0A4061691143016059
:102FA0002068C00506D517480168114A0A40A16982
:102FB000114301602078400606D512480168144A82
:102FC0000A40216A114301602078000606D50D48A9
:102FD0000168104A0A40E169114301600020FEBD0A
:102FE00038100240007000400010024050100240B3
:102FF000FFFFFCFFFFFFF7FF89130000FFFFCFFF7C
:10300000FFFFFFEF4C100240FFF3FFFFFFCFFFFF7A
:10301000FFFFFFFBFFFFF3FF03480168034A12783D
:1030200089180160704700BF20190020FB030020B1
:1030300010B50400002C01D101201EE03920205CD5
:10304000002805D1002038216054200000F03CF910
:10305000022039216054211D206800F0FDF8012074
:103060003E2160543A2160543B2160543C2160541D
:103070003D21605439216054002010BD10B501007D
:103080003920085C012801D001202CE002203923DE
:10309000C85401200B68DB6803430C68E3600B68CD
:1030A0008024E405A3420BD00B680F4CA34207D049
:1030B0000B680E4CA34203D00B680D4CA3420CD1FD
:1030C0000B689B685B075B0F1A00062A0AD00B6827
:1030D0001B6818430B68186004E00B681B681843F2
:1030E0000B681860002010BD00040040000801407B
:1030F0000014014070B504000226206800693040C9
:1031000000281CD02068C0683040002817D002205A
:10311000C04321680861012020762068806980070B
:10312000800F002803D0200001F074FD05E020008E
:1031300001F071FD200001F06FFD002020760425D4
:1031400020680069284000281CD02068C0682840FA
:10315000002817D00420C043216808612676206823
:103160008069C02189000140002903D0200001F0BE
:1031700051FD05E0200001F04EFD200001F04CFD66
:1031800000202076082620680069304000281BD0E7
:103190002068C0683040002816D00820C04321684D
:1031A000086125762068C0698007800F002803D059
:1031B000200001F02FFD05E0200001F02CFD200093
:1031C00001F02AFD002020761020216809690140C5
:1031D00000291CD02168C9680840002817D0102099
:1031E000C0432168086126762068C069C021890033
:1031F0000140002903D0200001F00CFD05E0200073
:1032000001F009FD200001F007FD002020760120DB
:1032100021680969014000290BD02168C96808406C
:10322000002806D00120C043216808612000FEF775
:10323000FFFD402021680969014000290BD0216869
:10324000C9680840002806D04020C04321680861B2
:10325000200001F0E2FC70BD10B502688023DB05A0
:10326000984208D0144CA04205D0144CA04202D081
:10327000134CA04204D17024A24314004A68224394
:10328000984208D00C4B984205D00C4B984202D083
:103290000B4B984203D10B4B1340CA681A4380234F
:1032A0009A430B69134303608A68C2620A688262A8
:1032B0000122426110BD00000004004000080140EE
:1032C00000140140FFFCFFFF7047FEE770B50500EA
:1032D0000C002E00002E01D172B6FEE701F0D6FCE4
:1032E0003068F16B326C51434018B0600020B0631D
:1032F000306870603068F16B491E326C5143401881
:10330000F0600020C0434421705445217054002CCB
:103310000BD13069002810D03000103001F0CAFA0B
:1033200000280AD001F0A8FC07E03000103001F0BE
:10333000F9FC3000243001F0F5FC01F0B1FC012073
:1033400070BD0000F7B505000F00002D01D172B669
:10335000FEE7002F01D1002401E02C007C43200077
:10336000483001F02DFD0600002E0DD03000483011
:10337000019000204621705400966846037A019A15
:103380003900280000F002F83000FEBDF8B5060054
:103390000C001700069D002C01D12D6000E02F606D
:1033A000EE632C6401212800FFF790FFF1BD0000BF
:1033B000FCB583B007000E00002500953C00002CF2
:1033C00001D172B6FEE7002E02D1206C002801D197
:1033D000012000E02800C0B2002801D172B6FEE74B
:1033E0000498022802D1E06B012801D1012000E0FD
:1033F0002800C0B2002801D172B6FEE701F05BFBE5
:10340000002802D10398002801D1012000E0280003
:10341000C0B2002801D172B6FEE701F037FCA06B04
:10342000E16B884202D30498022819D1049A310032
:10343000200000F0FDF80500606A002808D0200098
:10344000243001F037FA002806D001F015FC03E023
:10345000002D01D001F010FC01F022FC01204CE015
:103460000398002803D101F01BFC002045E00098E0
:10347000002804D101A801F05DFA0120009001F0BC
:103480000FFC01F0E7F801F001FC0020C0434421EB
:103490006156814202D129004422A154452161563E
:1034A000814202D128004521605401F0F9FB03A9B3
:1034B00001A801F04BFA002819D1200000F064F9AE
:1034C00000280ED003992000103001F0D9F9200017
:1034D00000F015F901F0C4F800289ED101F0CCFBF2
:1034E0009BE7200000F00BF901F0BAF895E7200007
:1034F00000F005F901F0B4F8002005B0F0BD0000BF
:10350000F4B584B007000E00002401943D00002DA6
:1035100001D172B6FEE7002E02D1286C002801D13D
:10352000012000E02000C0B2002801D172B6FEE701
:1035300001F0C1FA002802D10498002801D101202D
:1035400000E02000C0B2002801D172B6FEE701F011
:103550009DFBA86B00900098002815D03100280032
:1035600000F0B3F80098401EA8632869002807D02F
:103570002800103001F09EF9002801D001F07CFBFA
:1035800001F08EFB012051E00498002803D101F0E6
:1035900087FB00204AE00198002804D102A801F02E
:1035A000C9F90120019001F07BFB01F053F801F013
:1035B0006DFB0020C04344216956814202D12100A5
:1035C0004422A95445216956814202D12000452157
:1035D000685401F065FB04A902A801F0B7F90028BE
:1035E00019D1280000F0C2F800280ED00499280054
:1035F000243001F045F9280000F081F801F030F89E
:103600000028A4D101F038FBA1E7280000F077F8EA
:1036100001F026F89BE7280000F071F801F020F88F
:10362000280000F0A3F8002891D0002005B0F0BDDC
:10363000F3B583B00400170000260096A56B206C3C
:10364000002808D12068002839D1A06801F04CFA80
:103650000090A66033E0002F14D1206C02900498F3
:1036600001906668029A0199300000F08DFE606852
:10367000216C401860606068A16888421FD3206890
:1036800060601CE0206C029004980190E668029A49
:103690000199300000F078FEE068216C4A42801801
:1036A000E060E0682168884204D2A068216C4A4248
:1036B0008018E060022F02D1002D00D06D1E28007E
:1036C000401CA063009805B0F0BDF8B504000D00E3
:1036D000206C002812D0E068216C4018E060E0689F
:1036E000A168884201D32068E060206C0090E66801
:1036F0002F00009A3100380000F046FEF1BDF8B509
:10370000040001F0C3FA45202556280040B20128E4
:103710000CDB606A002809D02000243001F0CAF8D0
:10372000002801D001F049F96D1EEEE70027FF43A4
:103730004520275401F0B4FA01F0A8FA4420265697
:10374000300040B201280CDB2069002809D020009D
:10375000103001F0AFF8002801D001F02EF9761EEC
:10376000EEE74420275401F09BFAF1BD38B5040080
:1037700001F08CFAA06B002801D1012500E00025A2
:1037800001F08EFA280032BD38B5040001F07EFA4F
:10379000A06BE16B884201D1012500E0002501F01A
:1037A0007FFA280032BD0000431C0178401C09420A
:1037B000FBD1C01A7047FEE731B48B0707D00B78F6
:1037C0000370002B20D0401C491C8B07F7D1164CEE
:1037D000E501830722D104C9131B93432B4205D172
:1037E00004C004C9131B93432B42F9D0FF231A4290
:1037F000027009D0120A1A42427005D0120A1A4207
:10380000827001D0120AC27031BC70470270120A75
:103810004270120A8270120AC270001D04C9131B82
:1038200093432B42F2D0E1E70101010180B5094841
:10383000016801220A43026007480168802252059C
:103840000A430260002203210120C043FEF78AFCE4
:1038500001BD00BF341002403810024010B5040012
:10386000002C01D1012068E02120205C002805D136
:103870000020202160542000FFF718F802202121A9
:103880006054CA20216848625320216848622000A1
:1038900000F0C0FA002807D0FF2021684862042009
:1038A00021216054012048E0206880686E49014071
:1038B0002068816020688068616822690A43A16984
:1038C0001143014320688160E06821680861206835
:1038D0000069A16809040143206801612068C0688B
:1038E000802188432168C8602068C06C0321884318
:1038F0002168C8642068C06CE16962690A430243B8
:103900002068C2642068806880060FD4200000F020
:1039100065FA00280AD0FF2021684862042021218E
:103920006054002020216054012006E0FF2021681F
:103930004862012021216054002010BDF7B5040029
:103940002020205C012801D102208CE001252800E4
:10395000202160540220212160540298002820D1A7
:1039600020688068400602D400200199C870019840
:10397000007800F077FA07000198407800F072FABA
:1039800006000198807800F06DFAFFB23904F6B2B3
:1039900032020A43C0B210430199C9780E040643AB
:1039A00014E020688068400602D400200199C870A5
:1039B00001980078000401994978090201430198AF
:1039C000807808430199C9780E040643CA2021680B
:1039D0004862532021684862200000F01BFA00284A
:1039E0000AD0FF2021684862042021216054002071
:1039F00020216054012036E05F4830402168086093
:103A0000206880685D490140206881602068806886
:103A10000199C968019A12690A43024320688260C9
:103A20002068C068802188432168C8602068806859
:103A300080060FD4200000F0D1F900280AD0FF2022
:103A40002168486204202121605400202021605414
:103A5000012008E0FF202168486221202554002031
:103A6000202160540020FEBDBFFF8FFFF7B504008A
:103A70002020205C012801D102207CE001252800C3
:103A800020216054022021216054029800280AD18C
:103A900001984078C00606D501984078EF21014092
:103AA0000A31019841700298002819D10198C07814
:103AB00000F0D8F907000198407800F0D3F906002B
:103AC0000198807800F0CEF9FFB23904F6B23202E4
:103AD0000A43C0B21043019909784E0306430DE032
:103AE0000198C078000401994978090201430198BE
:103AF00080780843019909784E030643CA2021685B
:103B00004862532021684862200000F083F90028B1
:103B10000AD0FF202168486204202121605400203F
:103B200020216054012026E015483040216848607B
:103B30002068C068802188432168C8602068806848
:103B400080060FD4200000F049F900280AD0FF2099
:103B50002168486204202121605400202021605403
:103B6000012008E0FF202168486221202554002020
:103B7000202160540020FEBD7F7F7F00FFFFFBFF00
:103B80003FFFFF00F7B505000C002020285C01284E
:103B900001D10220E6E001202021685402202121E9
:103BA0006854029800282CD128688068400601D407
:103BB0000020E070E0690028FFD0207800F052F982
:103BC0000700607800F04EF90600A07800F04AF98E
:103BD000694608702020205C00F044F9FFB23904E7
:103BE000F6B232020A43694609781143E2781204B8
:103BF0000A43C0B200061043E169014367690F43FD
:103C00001AE028688068400601D40020E070E0696E
:103C10000028FFD020780004617809020143A078D1
:103C20000843E178090401432020205C0006084392
:103C3000E169014367690F436068A169014300912D
:103C4000CA2029684862532029684862606A802136
:103C50004900884239D12868806843490140286872
:103C600081602868C0688021084042490143286873
:103C7000C160FDF7B7F906002868C068C00710D416
:103C8000FDF7B0F9801B39498842F5D3FF20296838
:103C90004862032021216854002020216854032019
:103CA00060E02868C76100982968486428688068CF
:103CB000802149000143286881602868806880214C
:103CC000490101432868816038E0286880682849F4
:103CD0000140286881602868C068802108403E490A
:103CE00001432868C160FDF77DF906002868C068B7
:103CF000800710D4FDF776F9801B1C498842F5D364
:103D0000FF202968486203202121685400202021D7
:103D10006854032026E028680762009829688864B0
:103D200028688068802189000143286881602868AC
:103D30008068802189010143286881608020800299
:103D400033490A6802430A6042490A68104308601E
:103D5000FF20296848620120212168540020202189
:103D600068540020FEBD0000FFFEFFFFE9030000D5
:103D7000FFFDFFFF7FFEFFFF10B504002068806895
:103D8000C0040ED52068C068C0050AD5200001F027
:103D900025F92068C068802108402F490143206828
:103DA000C1602068806880040ED52068C0688005E6
:103DB0000AD5200001F013F92068C068802108406E
:103DC000054901432068C1608020800223490860C2
:103DD00001202121605410BD7FFDFFFF38B5040094
:103DE0002068C068A02188432168C860FDF7FAF800
:103DF00005002068C068800607D4FDF7F3F8401B73
:103E000017498842F5D3032000E0002032BD0000AE
:103E10000004014070B5040040262068C0683040AE
:103E2000002813D10020C0432168C860FDF7DAF8EC
:103E300005002068C0683040002807D1FDF7D2F89F
:103E4000401B07498842F4D3032000E0002070BDE6
:103E500000000000080401407FFEFFFF1404014041
:103E6000E903000000B50100002208000300DBB2F6
:103E70000A2B02D3521C0A38F8E712011043C0B2D1
:103E800000BDFEE7FEB5040000200700744E0100EF
:103E9000317069460870734D2000C0B2202148433C
:103EA0002818406800280DD02000C0B220214843C7
:103EB000281801892000C0B22022504328184068E9
:103EC000FDF7D1FE2000C0B2202148432818006928
:103ED00000280FD12000C0B2202148432818C06913
:103EE000002807D02000C0B2202148432818C0690C
:103EF000804729E05C48006801902000C0B2202182
:103F000048432818C168019800F01FF8012805D01F
:103F10000520FEF774FF30780128EED1377830782D
:103F200001280FD12000C0B2202148432818C069C1
:103F3000002807D02000C0B2202148432818C069BB
:103F4000804707003800C0B2FEBD00B502004648F9
:103F50000068831A8B4201D3012000E0002000BDDD
:103F600010B504003F482100C9B220225143411836
:103F70008B8A2100C9B22022514340180269A2480D
:103F80000188A348FEF7AAF9002801D0012000E02B
:103F9000002010BD10B59D4C6078002802D001288B
:103FA00018D023E020780A2813D1FDF7AAFE0020BC
:103FB00001002170012182229200A154A549020032
:103FC0008A7302004A730200CA738860087300F0A3
:103FD0000EF80BE0FDF795FE0020010021706070E7
:103FE000012082218900605400F001F810BD10B555
:103FF000A04C012201212000FEF742F84B2000F0E6
:10400000EFFF002201212000FEF73AF8FA20C0005D
:1040100000F0E6FF10BD10B58648007800281ED1DC
:10402000A024E405012280212000FEF729F8AF201A
:10403000800000F0D5FF002280212000FEF720F84C
:10404000FFF7D5FFFA20C00000F0CAFF8249042024
:1040500008700023002288480068FFF7A9F910BD06
:1040600009020020685B0008EC180020F3B581B05D
:10407000664E00242000B07068460079FFF702FF0A
:1040800000283BD0012800D0B6E073496846007A8A
:1040900008700023002278480068FFF789F92000A3
:1040A000307082208000305C142804D016280FD095
:1040B00018281CD021E06748012181607E490968E9
:1040C00001607E494160210041737D48047014E025
:1040D00020007C4908725F487749096801607A4985
:1040E0000A68521C0A60C47301F079F805E072484E
:1040F0000068584908607548047081E03078401CB9
:1041000030708220800035182878052871D0112859
:104110000AD0142811D0152816D0162823D0182814
:1041200040D01A2852D066E03078032802DB1220F3
:10413000287001E0102028705DE04648417B491C52
:1041400041731220287056E00623794A2E480188D0
:10415000701DFEF7C3F8012804D13E488460102189
:104160002970047347E03B4FF87B401CF873012033
:1041700054490872F87B032802D11220287001E00C
:1041800015202870152038730623694A1E480188B7
:10419000701DFEF7A3F8012803D1BC601020287021
:1041A0003C7328E02B4FB87B401CB873122028705A
:1041B00006235F4A14480188701DFEF78FF8012816
:1041C00003D1BC60102028703C7314E019202870C3
:1041D000584F38700623564A0B480188701DFEF769
:1041E0007DF8012804D11B488460102028703C70A1
:1041F00001E00520287003E004214F48FDF73FFD52
:104200000120B070F7BD0000601900200000002000
:104210000500002070B504000D00160020002900E4
:10422000C0B2C9B2884200D3B04770BD1C20454916
:1042300008707047080200201020424908700020D2
:1042400023494873704710203E49087000202049D8
:10425000C8737047D4180020641900201020394911
:10426000087070471020374908700020184988737B
:1042700070470000000400501C19002038B50024CD
:104280002000C0B2052815DA2F482100C9B2082243
:10429000514341184A682100C9B2082359434118C3
:1042A00049782300DBB208256B43C05CFFF7B2FFFF
:1042B000641CE5E731BD0000EC18002050C300008D
:1042C000621900200C180020F41800206319002047
:1042D000D4180020FEB500242700082122006D46D6
:1042E0002800FDF797FF6E463223184A14480188CC
:1042F0001248FEF726F80500002D18D02000C0B2A5
:10430000082807DA2000C0B2285C2100C9B2705426
:10431000641CF3E70EA402212000FDF7B0FC082185
:104320006846FDF7ACFC02212000FDF7A8FCF7BDB4
:1043300030650008E0180020C86200080500002071
:104340006019002008020020D8600008A46000085E
:104350000D0A000070B4103A03D378C9103A78C03F
:10436000FBD2530701D318C918C001D508C908C02A
:10437000D20704D30B880380891C801C002A01D536
:104380000B78037070BC70478B0701D18307E1D0B5
:10439000124205D00B78491C0370401C521EF9D103
:1043A0007047FEE7F3B587B017001E000F9D109C05
:1043B000002D01D172B6FEE7002C01D172B6FEE7E6
:1043C000542000900098542801D072B6FEE700985F
:1043D000002C1AD0002D18D00494049805630220F4
:1043E000049951228854002003900498029005A853
:1043F00001900E98009033003A000899079800F059
:104400003FF8049800F08AF801E000200590059834
:1044100009B0F0BDF3B585B015001F00290089B2C1
:104420000420484300F0CCFC0600002E0BD05420A2
:1044300000F0C6FC0400002C01D0266304E030002C
:1044400000F030FD00E00024002C15D000205121A8
:1044500060540020039002940D9801900C980090F5
:104460003B002A0092B20699059800F009F8200056
:1044700000F054F8012001E00020C04307B0F0BD77
:10448000FFB581B00A9F0C9C206B03990422514315
:104490004018001F0721884300900098400701D072
:1044A00072B6FEE70298002811D000200500102DFA
:1044B0000AD20299495D62193423D1540299495DA7
:1044C000002901D06D1CF2E74321605402E0002076
:1044D00034216054072F01D306200700E762676488
:1044E0000026A664201D00F02CFC2000183000F0EF
:1044F00028FC24610720C01BA0616462E664502090
:104500002654049A0199009800F088FB20600B98CB
:10451000002801D00B98046005B0F0BD38B5040048
:1045200000F0B4FB29480168491C0160284D296846
:10453000002906D12C60006801280CD100F04EFA49
:1045400009E027480068002805D1E06A2968C96A9F
:10455000884200D32C601F480168491C01601E4836
:104560000168E26A914201D2E16A0160211D1B48A3
:10457000E26A14235A43801800F0E6FB00F090FB37
:1045800017480068002806D02868C06AE16A884297
:1045900001D200F071FB31BD38B504000025002CBC
:1045A0000ED010480068002801D072B6FEE700F077
:1045B00051F80021200000F0EDFA00F051F805005C
:1045C000002D01D100F058FB31BD0000341900204E
:1045D00024190020501900203C190020E415002067
:1045E000401900205C19002038B586B000240494DE
:1045F000039405AA03A904A8FEF70AFA844D0498B7
:10460000029003980190002000900023059A8149B0
:104610008148FFF7C7FE28602868002801D00125DF
:1046200000E02500012D0CD172B60020C0437B496B
:10463000086001207A4908609B48046000F007FB8D
:1046400005E00020C043854201D172B6FEE707B005
:1046500030BD000030480168491C0160704700000F
:10466000F8B500252C0000952B4E3068002801D1AC
:1046700072B6FEE700F00AFB3068401E306030681A
:10468000002845D125480068002841D02448016809
:10469000002922D0C068C06804002000183000F053
:1046A0007AFB201D00F077FB1E480168E26A914208
:1046B00001D2E16A0160211D1B48E26A14235A43BA
:1046C000801800F041FBE06A78490968C96A8842AD
:1046D000DCD3012092490860D8E7002C01D000F01B
:1046E000D7F9734F3E68002E0AD000F01FF800285B
:1046F00002D001208A490860761E002EF5D13D6067
:1047000087480068002803D00120009000F0B4FA28
:1047100000F0C6FA0098F2BD5C19002034190020A0
:10472000981800203C190020E4150020F8B5002559
:104730007C48006800285ED15B4807687F1C0760E2
:10474000002F11D1784801680968002901D072B69C
:10475000FEE7066875490A6802600E6074480168E1
:10476000491C016000F094F92C4E3068874236D322
:104770006D4801680968002903D10020C0433060FA
:104780002DE00068C068C068040060680090009870
:10479000874202D20098306021E0201D00F0FBFA31
:1047A000A06A002803D02000183000F0F4FA654811
:1047B0000168E26A914201D2E16A0160211D62480A
:1047C000E26A14235A43801800F0BEFAE06A3749BF
:1047D0000968C96A8842CBD301200500C8E733487D
:1047E00000685949C06A142250430858022806D369
:1047F0000120050003E02E480168491C016048487B
:104800000068002801D0012005002800F2BD00004A
:104810005819002050650008C349000854190020A9
:104820004019002010B53F480068002803D001203F
:104830003B49086023E0002039490860414801688D
:10484000414A14234B43D358002B05D1002901D1F1
:1048500072B6FEE7491EF3E714234B43D2185368A0
:104860005B685360536814000834A34202D1536854
:104870005B6853605268D2680C4B1A60016010BDCF
:1048800038B504000D00002C01D172B6FEE70748D0
:10489000006801001831200000F062FA01212800B0
:1048A00000F078F931BD00003819002024190020EB
:1048B0004419002038B50400E068C568002D01D116
:1048C00072B6FEE72800183000F065FA1548006857
:1048D000002812D1281D00F05EFA1A480168EA6A21
:1048E000914201D2E96A0160291D1748EA6A14233E
:1048F0005A43801800F028FA04E02900183177485C
:1049000000F022FA74480068C06AE96A884204D25A
:1049100001210800304A116000E0002032BD000093
:10492000481900205C190020281900202C190020AB
:104930004C1900206B49096801608749096841608A
:10494000704700003C190020E4150020F8B5040071
:104950000F00002C01D172B6FEE7002F01D172B614
:10496000FEE700F093F97C4805686068281A00901B
:1049700038680021C943884201D1002619E059480E
:1049800000682168884204D06068854201D301260E
:104990000FE000983968884208D238680099401AB8
:1049A00038602000FFF7C6FF002602E000203860D4
:1049B000012600F075F93000F2BD012006490860BB
:1049C000704710B5040000F02BF864480068022816
:1049D000F9D300F051F9F6E74819002070B500242A
:1049E000072C07D25D4814216143401800F09AF962
:1049F000641CF5E75A4E300000F094F9594D280038
:104A000000F090F9354800F08DF9574800F08AF928
:104A1000564800F087F9564806605648056070BD54
:104A200038B5554D2868002815D000F02FF94E48AC
:104A3000C068C0680400201D00F0ADF94F4801684F
:104A4000491E01602868401E286000F029F92000F6
:104A500000F002F8E5E731BD10B504005120205CFC
:104A6000002806D1206B00F01DFA200000F01AFA91
:104A70000DE05120205C012803D1200000F012FA43
:104A800005E05120205C022801D072B6FEE710BD7F
:104A900000B537490A681268002A04D10021C943C9
:104AA000374A116006E00968C968C96808004168AA
:104AB000334A116000BD00B533480068002801D1B9
:104AC000012006E006480068002801D1022000E02D
:104AD000002000BD000000002419002098180020CC
:104AE0005C1900204C19002070B506003400002528
:104AF000002E2ED023480068844201D072B6FEE713
:104B0000A06C002801D172B6FEE7A06C401EA06424
:104B1000E06A616C88421CD0A06C002819D1201D6D
:104B200000F039F9606CE0620720E16A401AA06188
:104B300016480168E26A914201D2E16A0160211DD2
:104B40001348E26A14235A43801800F0FDF801204C
:104B50000500280070BD000038190020E415002071
:104B60007018002084180020AC180020C018002005
:104B7000281900202C190020301900203419002099
:104B80005419002024190020401900203C1900204D
:104B9000E4150020F8B504000F0019480568174E09
:104BA0003068001D00F0F7F80020C043844207D1B0
:104BB000002F05D03068011D124800F0C5F81BE039
:104BC000281900900098316848600098A84206D2E1
:104BD0003068011D0C48006800F0C2F80CE0306835
:104BE000011D0A48006800F0BBF8094800990268F6
:104BF000914201D200990160F1BD0000241900200A
:104C000038190020C01800202C1900202819002075
:104C1000541900207047704770477047001F802369
:104C20005B040360001F0160001F364B03601438F3
:104C3000026020387047000000B53348006800214A
:104C4000C943884201D072B6FEE772B6FEE780B56E
:104C50002E480168FF2212040A4302600168FF2205
:104C600012060A43026000F03AF800202649086064
:104C700000F087FB002002BD802040052449086029
:104C8000BFF34F8FBFF36F8F7047000072B61E489F
:104C90000168491C0160BFF34F8FBFF36F8F7047EE
:104CA00000B519480168002901D172B6FEE7016814
:104CB000491E01600068002800D162B600BD10B531
:104CC00000F070FB0400FFF731FD002803D08020C6
:104CD00040050F490860200000F068FB10BD10B5CA
:104CE0000C4C002020600C4908600C480068FA2138
:104CF0008900FCF70EFF401E09490860072020606C
:104D000010BD0000394C00083C03002020ED00E0FD
:104D100004ED00E010E000E018E000E044030020B3
:104D200014E000E00100083141600021C9438160C6
:104D300001000831C16001000831016100210160FA
:104D4000704700210161704742684A6093688B6038
:104D5000936859609160086103685B1C0360704749
:104D600010B50A680023DB439A4201D1036907E0CA
:104D7000030008335C682468A24201D35B68F9E74A
:104D80005C684C604C68A1608B6059600861046885
:104D9000641C046010BD00B5010008698A684B6896
:104DA0009A604A688B685A6042688A4201D18A6870
:104DB000426000220A610268521E0260006800BD63
:104DC000FEB5050000260296FFF744FC7C4800680B
:104DD000002801D100F096F87A48006828400028A1
:104DE00056D1002D0ED0784800682D1807200542B6
:104DF00008D02900083105404D1B2840002801D06B
:104E000072B6FEE7002D43D0704F3868A8423FD3FA
:104E10006F480190006804006068A84205D22068CD
:104E2000002802D001942468F6E7654800688442AF
:104E30002ED0654801990968026889180291216895
:104E4000019A1160006840006168491B88420ED2D7
:104E5000601900900098400701D072B6FEE76068C4
:104E6000401B009948606560009800F07AF8386847
:104E70006168401A3860574839680268914201D227
:104E80003968016060684F490968014361602660C4
:104E9000FFF7E6FB0298400701D072B6FEE70298E2
:104EA000FEBD000070B505002E00002D29D046483B
:104EB00000684142761834004248616802680A403E
:104EC000002A01D172B6FEE72168002901D072B62E
:104ED000FEE7616802680A40002A12D021680029B2
:104EE0000FD16168006881436160FFF7B3FB374809
:104EF0000168626889180160200000F032F8FFF74D
:104F0000AFFB70BD70B5C0200001334A11004B07E4
:104F10005B0F002B04D0C91D07239943401A80184A
:104F20000A002B4C2260002363601418264D2D6864
:104F3000641B0725AC43224D2C602E6873602E68DD
:104F400033601300E61A5E602D681D605D68214EB7
:104F500035605D681D4E356080252D06194E356023
:104F600070BD30B51A490A68824201D20968FAE771
:104F70000A004B68D318834204D14B6844681B195C
:104F80004B600800030044681C190D68AC4210D146
:104F90000B4A0C681568AC4208D042680C6864681B
:104FA000121942600A681268026004E01268026026
:104FB00001E00A680260814200D0086030BD000054
:104FC00008190020141900207C6500080C19002025
:104FD000E418002010190020FC03002070477047DF
:104FE00070B50400FBF7FEFF050026000020C0435B
:104FF000864202D0044800783618FBF7F3FF401BC6
:10500000B042FAD370BD00BFFB03002078B599B061
:10501000642100226C462000FDF7FCF89CA63100BC
:10502000684600F0C9F99B4C616800F0C5F99AA583
:105030002900684600F0C0F9310000F0BDF921698F
:10504000684600F0B9F9290000F0B6F9E169684650
:1050500000F0B2F9A7A100F0AFF96846FEF7A4FB93
:10506000010089B26846FCF7FEFD01201AB070BD50
:10507000F8B588B000252F001E212A006C462000BC
:10508000FDF7C8F86C469C499C4800F0A3F906005F
:105090000B3630780D2804D030782070641C761CD4
:1050A000F7E7684600F054FA0100080080B20028D3
:1050B00001D1012000E0002009B0F0BD70B500264C
:1050C0008F4C904A90480188200000F08EFA05002D
:1050D000290089B22000FCF7C6FD6420FDF78FFE91
:1050E000012070BDF0B58DB01424210000252A00E8
:1050F00008AE3000FDF78EF86846848328006946C4
:10510000C88382480168491C01607D4F7E4E31880A
:105110003800FDF773F96846828B08A97C4800685F
:10512000FDF77CF97B4C2760308860600120E060EF
:105130002574272060827848606108A8206208A84A
:10514000FEF732FB6062606A0690206A05902000DC
:10515000143002AA0AC80AC2036813600838083A61
:10516000608A0190207C0090E368227A6168206860
:1051700000F04EFB0400210089B23800FCF773FDFB
:105180006420FDF73CFE01200DB0F0BD10B50024F9
:105190001723624A624801885848FDF79FF80100CA
:1051A0000800C0B2002801D0012000E0002010BD9E
:1051B00070B50026524D544C21882800FDF71EF989
:1051C0002188280000F00AFB0400210089B2280091
:1051D000FCF749FD6420FDF712FE012070BD30B5DB
:1051E000A1B01E21002422006D462800FDF712F810
:1051F00008A84C496422FFF7ADF81E2269464348CF
:105200000068FDF70BF9694608A800F0D5F81E21E3
:105210006846FDF7F3F8444908A800F0CDF81E22CF
:1052200069463B480068FDF7F9F8694608A800F0B0
:10523000C3F83EA100F0C0F808A8FEF7B5FA0500D3
:10524000290089B208A8FCF71AFD21B030BD7FB54E
:1052500000262B4C2C4D29882000FDF7CFF8344830
:105260004169029101690191C16800914389027A03
:105270002988200000F044FB0500290089B22000A5
:10528000FCF7F1FC6420FDF7BAFD012004B070BD0D
:10529000220000000C020020222C000038B584B04F
:1052A00001A824490A22FFF76FF8022100242200F6
:1052B0006D462800FCF7AEFF69461D484089FDF7A2
:1052C000BFF8694601A800F077F81BA100F074F858
:1052D0000A2301AA124801880848FCF7FFFF0100D1
:1052E0000800C0B2012801D1012000E0002005B073
:1052F00030BD00002C000000A46400080500002060
:10530000FC110020BC020020F8030020F01800204F
:10531000F41800200C180020B0640008E0620008B7
:1053200060190020685F00080C6200080D0A000088
:1053300058180020BC6400083031000080F3088851
:105340007047EFF309801B4B1A6820381060F0C0DB
:1053500044464D4656465F46F0C008B572B6FFF764
:1053600061FA62B60CBC116808681030F0C8A0463B
:10537000A946B246BB4680F309882038F0C81847D2
:1053800070470C4B19680868203080F309880220A8
:1053900080F31488BFF36F8F3FBCAE4608BC04BCDB
:1053A00062B61847EFF3108072B6704780F310882A
:1053B0007047000024190020020000E0521C1378FE
:1053C000002BFBD10B781370002B02D0521C491C10
:1053D000F8E7704770B50D78002D11D00C0004E08F
:1053E000491C0E78964207D0401C290000F0E6FACE
:1053F000002805D0010023005B1C1A78002AEFD199
:1054000070BDFEE7FCB587B00C001500002B01D085
:10541000002119600390064600E0761C307800F009
:10542000D6FA0028F9D1300001782D2901D02B2996
:1054300003D16A461170401C02E02B216A461170AC
:105440000194002D03D4012D01D0252D04DB002C67
:1054500054D00398206051E0002D0ADD102D16D1A4
:105460000178302913D1417820220A43782A0ED1BD
:105470000AE00178302901D00A2508E0417820228D
:105480000A43782A02D11025801C00E008250690E6
:1054900000E0401C01783029FBD0002405902B4A05
:1054A0007A44A83228326B465A700295049F050050
:1054B0000494264E7E44943608E004946946497864
:1054C000471AFFB202984443E4196D1C287800F093
:1054D00087FA029A01003000283000F08BFA002889
:1054E000EBD1029938002F00049D069ABA4207D1E9
:1054F0000198002802D0039801990860002022E05A
:10550000059ABA1A735CD21A002A11D405DC201A43
:1055100003D3FCF7FEFAA8420AD000BF00BF0898E8
:10552000002802D00120089908600024E44305E027
:10553000684600782D2801D16042040001980028B7
:1055400000D00760200009B0F0BD00BF800A000055
:1055500080B5FFE700230A220021FFF753FF02BDB9
:1055600070B504000026207A032802D10C20060022
:1055700004E0207A042801D10A20060020000C3023
:1055800007C800F0C8FA801C3518E07E00280ED04D
:105590002000243007C800F0BEFA0600200030309A
:1055A00007C800F0B8FA3018001D28180500206C54
:1055B000002802D1A06C002807D02000403007C886
:1055C00000F0A9FA801C28180500E06C002802D120
:1055D000606D002807D020004C3007C800F09BFA0F
:1055E000801C28180500280070BDF0B585B00600A5
:1055F0000F00140000967548006802907448006817
:105600000190002503950020C04304902000FFF77F
:10561000A7FF039000F014FA874202DA0120C0438A
:10562000A6E02800694608720298F02188431021FC
:10563000014302916846017A684600F014FA039922
:10564000009800F0E3F9009908180090207A0428E7
:1056500008D12100684600F024FA217A684600F05B
:1056600002FA07E05B49684600F01BFA032168462E
:1056700000F0F9F9280069460871A17E019802221C
:1056800090434900022211400143E07E002801D0EE
:105690000125FFE704208143A800042210400843AD
:1056A00001900125019880082840002811D03D2054
:1056B000215C019818229043CA001821114001432F
:1056C0003C20205C202291434001202210400843CE
:1056D0000190206C002802D1A06C002803D0019812
:1056E000802101430191E06C002802D1606D002807
:1056F00003D0019840210143019168460179684631
:1057000000F0B1F9218B684600F0B3F920000C30AD
:105710000EC80C38684600F0DBF9E07E00280DD09A
:10572000200024300EC80C38684600F0D1F9200063
:1057300030300EC80C38684600F0CAF90198C0092C
:105740002840002806D0200040300EC80C3868469B
:1057500000F0BEF9019880090540002D06D0200018
:105760004C300EC80C38684600F0B2F90098801B27
:1057700005B0F0BDFEB504000E0017001648006825
:1057800001900025ED430094022E02DA0120C0436F
:105790001AE00020694608710198F0218843390019
:1057A000C9B20901F0220A40024301926846017918
:1057B000684600F058F90021009800F027F9009998
:1057C000081800900098001BFEBD000080650008CE
:1057D00084650008406500088865000838B5050044
:1057E0000C000C2221002800FFF7C4FF32BDFEE7A9
:1057F0007FB50600089D002401A807C800F08BF9BA
:105800004019801C2018012E00DB801C04B070BDE4
:10581000F7B586B006001D00149C01962D4800685F
:105820000290002007000590009410A80EC80C38C4
:105830002800FFF7DDFF049000F002F9079981428C
:1058400002DA0120C04342E00299F0208143302077
:1058500008430821884308A90978C9000822114093
:105860000143062081436A000620104008430121BD
:1058700088430EA909780A00D207D20F0243029288
:105880006846017A01A800F0EEF80499019800F04A
:10589000BDF801990818019010A80EC80C3801A88D
:1058A00000F016F9012D04DB6846818F01A800F095
:1058B000E0F8039413980090019F039A0099380030
:1058C000FEF762FD0198001901900198801B09B054
:1058D000F0BD00008C650008F8B506000F00022539
:1058E0000024B4420ADA0C206043381807C800F0DC
:1058F00012F9C01C28180500641CF2E72800F2BD4C
:10590000FFB585B00E9F0F9E059800902A4800684D
:1059100001900025029503952C0031003800FFF717
:10592000DBFF029000F08CF80699814202DA012038
:10593000C0433EE02800694608710199F020814388
:1059400080200843082188436946097FC90008224E
:10595000114001430620814302200843019068461C
:105960000179684600F07FF80299009800F04EF83F
:105970000099081800906846018C684600F079F894
:105980002C00BC4212DA0C20604330180EC80C38D0
:10599000684600F09DF810980421614340580100CA
:1059A000C9B2684600F05FF8641CEAE70098059900
:1059B000401A09B0F0BD000090650008C9B2027835
:1059C0008A4203D0401C002AF9D10020704710B54C
:1059D000040000F0C5F801002000096A884710BDE6
:1059E00010B5040000F0BCF801002000896A884767
:1059F00010BDFEE7C9B2521E05D30378401C8B428E
:105A0000F9D1401E704700207047FEE7F1B50D0048
:105A10000024802728003900FCF778F80E002800C1
:105A20003900FCF773F80500012D02DB30003E0061
:105A3000064300980655641C012DEADA2000F2BDE9
:105A400000B5401C802801DA401C0BE08021C90110
:105A5000884201DA801C05E03549884201DAC01C21
:105A600000E0001D00BD026811700268521C026057
:105A7000704770B504000D008026760028003100C4
:105A8000FCF744F8216808702068401C206028005A
:105A90003100FCF73BF8206801702068401C206052
:105AA00070BDFEB504000E003000FDF77DFE050060
:105AB00029002000FFF7DDFF019500962768019A75
:105AC00000993800FEF760FC206840192060F7BD9F
:105AD000FEB504000198012810DB01992000FFF7B2
