:020000040800F2
:10000000481D0020656300080560000809600008BD
:1000100000000000000000000000000000000000E0
:10002000000000000000000000000000095300086C
:100030000000000000000000CB5200083B4F000809
:100040005F1E00080F2200080D6000081322000840
:1000500063220008C3240008033400085334000856
:10006000633400086741000897520008035A0008EB
:10007000D35D0008B35F00084B61000817600008FB
:1000800057610008FD640008FF64000800000000DC
:10009000016500080365000805650008076500089C
:1000A000096500080B6500080D6500082960000857
:1000B000336000080F6500080000000011650008AB
:1000C00010B50400002C01D1012035E0A069002802
:1000D000FFD1A06F002805D10020742160542000BA
:1000E00000F012FF2420A0672068006801218843E7
:1000F00021680860200000F07DFA012801D101206C
:100100001AE0606A002802D0200000F00FFC20688E
:1001100040680A49014020684160206880682A21BF
:1001200088432168886020680068012101432068B5
:100130000160200000F06EFC10BD0000FFB7FFFF63
:10014000FEB582B00400A06F20286ED1029800286E
:1001500003D068468089002801D1012066E080250F
:100160006D01A068A84207D12069002804D1029837
:10017000C00701D5012059E07420205C012801D17D
:10018000022053E001207421605400278020275072
:100190002120A06700F026FF019068468089502149
:1001A00060526846808952216052A068A84205D1F9
:1001B0002069002802D13D00029E01E0029D3E0020
:1001C000742027545220205A00281ED004980090F2
:1001D000019B00228021200000F050FC002801D06B
:1001E000032023E0002D06D13088C005C00D216812
:1001F0008862B61C03E02878216888626D1C522052
:10020000205A401E52216052DCE704980090019B66
:1002100000224021200000F031FC002801D0032002
:1002200004E02020A067002000E0022005B0F0BD1F
:1002300070B504000D001600E06F20283CD1002DA1
:1002400003D0300080B2002801D1012035E0A06841
:1002500080214901884207D12069002804D1280063
:10026000C00701D5012028E07420205C012801D1BD
:10027000022022E0012074216054002020662068C2
:100280000E49884211D02068406800020DD5EFF376
:100290001080012181F31088216809688022D2042E
:1002A0000A4321680A6080F31088320092B2290064
:1002B000200000F057FC00E0022070BD0048004024
:1002C000FEB504002068C76920680568206880685A
:1002D0000090C34838400290029800280AD1B8061E
:1002E00008D5A80606D5606E002802D02000616EF1
:1002F000884774E10298002800D1A6E00120009907
:100300000140002904D1B7492940002900D19CE0CF
:1003100001003940C9B2002908D0E90506D5216895
:1003200008628021615801438022A150B9070DD590
:1003300000990140C9B2002908D002212268116247
:100340008021615804220A438021625079070DD52B
:1003500000990140C9B2002908D004212268116225
:100360008021615802220A438021625039070ED54C
:10037000A90604D400990840C0B2002807D008207C
:100380002168086280216158084380216050380547
:100390000BD5680109D58020000121680862802002
:1003A00020582021014380202150802020580028FF
:1003B0004AD0B80607D5A80605D5606E002802D039
:1003C0002000616E884780202058019040262068D8
:1003D00080683040002804D101982821014000297C
:1003E0002CD0200000F038FC206880680640002EE9
:1003F00020D0EFF31080012181F3108821688968F3
:10040000402291432268916080F31088206F002879
:100410000CD07548216F8863206F00F013FE002810
:1004200012D0206F216F896B88470DE0200000F00B
:1004300038FE09E0200000F034FE05E0200000F066
:1004400030FE002080216050C9E0206E012800D0DD
:10045000A5E0F80600D4A2E0E80600D49FE0102052
:100460002168086220688068400659D5206F0068BE
:100470004668300080B2002851D030005821615ABF
:1004800080B288424BD25A2026522020216F096820
:1004900009680140002939D1EFF31081012282F36C
:1004A000108822681368514A1A4023681A6081F341
:1004B0001088EFF31081012282F31088226892687D
:1004C00001239A4323689A6081F31088EFF3108127
:1004D000012282F310882268926840239A4323689D
:1004E0009A6081F31088E06700202066EFF31080A7
:1004F000012181F310882168096810229143226844
:10050000116080F31088206F00F072FD5820205A8F
:100510005A21615A411A89B2200000F0C3FD5EE001
:100520005820205A5A21615A461A5A20205A002827
:1005300034D0300080B2002830D0EFF31080012199
:1005400081F3108821680968294A0A4021680A60F5
:1005500080F31088EFF31080012181F31088216867
:100560008968012291432268916080F310882020DD
:10057000E067002020666066EFF31080012181F3C0
:10058000108821680968102291432268116080F365
:100590001088310089B2200000F084FD1FE0F802CD
:1005A0000AD50098400207D58020400321680862E0
:1005B000200000F0B7FD12E0380608D5280606D561
:1005C000A06E002802D02000A16E884707E07806C0
:1005D00005D5680603D5200000F086FBFFE7F7BDD0
:1005E0000F08000020010004D10C0008FFFEFFFFEF
:1005F000DFFEFFFFFEB506000027380069460870E1
:10060000AB4831688142FFD0B16832690A437369EF
:100610001343F169194332681268A64B13400B4328
:100620003268136032685268A34B1340F2681A4371
:1006300033685A60B26902923268824203D00299EA
:10064000326A0A430292316889689C4A0A400299D8
:100650001143326891603168994A914215D1AE498F
:1006600009688907890F002905D0022905D006D31A
:10067000032906D007E0012550E002254EE00425BD
:100680004CE008254AE0102548E03168A34A914231
:1006900016D1A14909680C220A40002A06D0042A72
:1006A00008D0082A04D00C2A06D007E03D0035E027
:1006B000022533E0042531E008252FE010252DE048
:1006C0003168974A914201D13D0027E03168954A4F
:1006D000914201D13D0021E0316881421DD18E4916
:1006E0000968C02212010A40002A0CD08021C900EA
:1006F0008A420CD0802109018A4206D0C02109011A
:100700008A4206D007E03D0008E0022506E0042505
:1007100004E0082502E0102500E010253168814240
:1007200058D12800C0B2002806D0022808D00428DA
:100730000ED0082810D012E001F032F9040012E0C7
:1007400079480068C00601D5B04C00E0B04C0AE022
:1007500001F0C6F8040006E08024240203E03C0017
:10076000012069460870002C00D1CFE07068032199
:100770004843844205D37068802149014843A04220
:1007800003D2012069460870C0E0200000218022C9
:100790005200002301F056F902000B007068400877
:1007A0000021801859417268002301F064F901901A
:1007B0000198C0218900884208D30198802149030B
:1007C000884203D201983168C8609FE001206946E1
:1007D00008709BE080242402F069A0424CD12800DC
:1007E000C0B2002808D001280AD002280CD0042862
:1007F00012D0082814D014E001F0D2F8040014E05C
:1008000001F0DAF8040010E047480068C00601D59E
:100810007E4C00E07E4C08E001F062F8040004E049
:1008200003E03C00012069460870002C6ED00220D5
:100830006043716849084018716801F06AF980B234
:1008400001900198102813D3019880214902884211
:100850000ED2019988480840019949084907490F73
:10086000014368464180684640883168C8604DE071
:1008700001206946087049E02800C0B2002808D06D
:1008800001280AD002280CD004281DD008281FD027
:100890001FE001F085F804001FE001F08DF804006E
:1008A0001BE021480068C0060CD5584C0BE000BF87
:1008B00000480040F369FFEFFFCFFFFFFFF4FFFFA9
:1008C00000380140524C08E001F00AF8040004E04E
:1008D00003E03C00012069460870002C16D07068C7
:1008E00040082018716801F014F980B20190019855
:1008F000102808D3019880214902884203D2019828
:100900003168C86002E00120694608707766B76602
:1009100068460078FEBD00BF4C1002400044004015
:10092000004C0040005000400010024000B524215F
:10093000415CC90707D501684968894A0A40816A4C
:100940001143026851602421415C890707D5016881
:100950004968B84A0A40C16A1143026851602421BB
:10096000415C490707D501684968B34A0A40016BF1
:100970001143026851602421415C090707D50168D1
:100980004968AE4A0A40416B114302685160242114
:10099000415CC90607D501688968A94A0A40816B8C
:1009A0001143026891602421415C890607D50168E2
:1009B0008968A44A0A40C16B1143026891602421EE
:1009C000415C490614D5016849689F4A0A40016C98
:1009D000114302685160016C80225203914207D199
:1009E00001684968994A0A40416C114302685160A4
:1009F0002421415C090607D501684968944A0A40E8
:100A0000816C11430268516000BD000000093D0087
:100A10000024F4007CB50500002480202C5000F058
:100A2000E1FA06002868006800070CD589480090A4
:100A30003300002280218903280000F01FF80028DD
:100A400001D0032017E02868006840070CD58148D2
:100A50000090330000228021C903280000F00EF826
:100A6000002801D0032006E02020A867E8672C6654
:100A700074202C54002076BDF0FF0000F4B5040073
:100A80000D001F00069E2068C0692840A84201D1C1
:100A9000012000E000206946097888425DD10020ED
:100AA000C0438642EFD000F09DFAC01B864201D3BE
:100AB000002E21D1EFF31080012181F310882168ED
:100AC00009687E4A0A4021680A6080F31088EFF3C3
:100AD0001080012181F310882168896801229143E7
:100AE0002268916080F310882020A067E0670020D2
:100AF00074216054032031E0206800684007C2D5AB
:100B0000802000012168C96901400029BBD021680B
:100B10000862EFF31080012181F3108821680968D1
:100B2000664A0A4021680A6080F31088EFF310805B
:100B3000012181F31088216889680122914322688C
:100B4000916080F310882020A067E06780216050CA
:100B5000002074216054032000E00020F2BD00005A
:100B6000FFFFFDFFF0B50300596558201A525A20C7
:100B70001A5200205866802464019D68A5420AD15B
:100B80001D69002D03D14E4D5C269D5324E0FF25A9
:100B90005C269D5320E09D68002D0AD11D69002D23
:100BA00003D1FF255C269D5316E07F255C269D53CF
:100BB00012E09D6880267605B5420AD11D69002D98
:100BC00003D17F255C269D5306E03F255C269D537F
:100BD00002E005005C269D53802558512225DD67E3
:100BE000EFF31085012686F310881E68B76801268A
:100BF0003E431F68BE6085F310889D68A54205D1FD
:100C00001C69002C02D12F4C5C6601E02E4C5C6606
:100C100074241855EFF31080012484F310881C68A5
:100C2000246890256D0025431C68256080F310889A
:100C30000020F0BDFFFFFEFFFFFFFBFFFF7FFFFF78
:100C4000FFEFFFFFFFDFFFFFFFFFEFFFFFFF9FFF54
:100C5000FFFFF7FFFFFFFF0100B5EFF31081012257
:100C600082F3108802681268184B13400268136000
:100C700081F31088EFF31081012282F3108802685B
:100C8000926801239A4303689A6081F31088016E89
:100C900001290CD1EFF31081012282F31088026840
:100CA000126810239A4303681A6081F31088202188
:100CB000C16700210166416600BD00005FFEFFFFC5
:100CC000FF010000DD0D0008170D0008DFFEFFFF2B
:100CD00038B50400A56A00205A2168525221685292
:100CE000280000F0DEF931BD10B50400EFF31080EC
:100CF000012181F31088216809684022914322680C
:100D0000116080F310882020A0670020A0662000DA
:100D100000F056FF10BD70B504005C20255AE06F4E
:100D2000222854D12068406A060030002900014082
:100D3000606D0170606D401C60655A20205A401E35
:100D40005A2160525A20205A002846D1EFF31080D1
:100D5000012181F3108821680968524A0A402168FC
:100D60000A6080F31088EFF31080012181F310886E
:100D700021688968012291432268916080F310887C
:100D80002020E06700206066216E01291BD12066CB
:100D9000EFF31080012181F3108821680968102287
:100DA00091432268116080F3108810202168C9697E
:100DB0000140002901D0216808625820215A2000F2
:100DC00000F070F909E0200000F0FCFE05E020686A
:100DD0008069082101432068816170BDF8B5040075
:100DE0005C20255AE06F222854D12068406A060012
:100DF000606D0700280030403880606D801C6065A1
:100E00005A20205A401E5A2160525A20205A002847
:100E100046D1EFF31080012181F310882168096821
:100E2000204A0A4021680A6080F31088EFF310809E
:100E3000012181F310882168896801229143226889
:100E4000916080F310882020E06700206066216EAA
:100E500001291BD12066EFF31080012181F3108856
:100E600021680968102291432268116080F310887C
:100E700010202168C9690140002901D02168086259
:100E80005820215A200000F00DF909E0200000F060
:100E900099FE05E02068806908210143206881618E
:100EA000F1BD0000DFFEFFFF80B547484749016004
:100EB000E1214902416000218160C16001610C2291
:100EC00042618161C16101624162FFF7F9F8002866
:100ED00001D000F0B7FF01BD80B53D483D4901603C
:100EE000E1214902416000218160C16001610C2261
:100EF00042618161C16101624162FFF7E1F800284E
:100F000001D000F09FFF01BD10B586B0040014228F
:100F10000021684600F099FF20682C49884227D1BB
:100F20002D4801688022D2010A43026001202B492A
:100F30000A6802430A600968084005900598C020C5
:100F4000C000009002200190002002900320039036
:100F5000042004906946A020C00500F081FF002213
:100F600003211B2001F0FEF81B2001F005F929E008
:100F700020681849884225D11948016880229202C8
:100F80000A430260012015490A6802430A600968A1
:100F90000840059005980C20009002200190002048
:100FA000029003200390042004906946A020C0050D
:100FB00000F056FF002203211C2001F0D3F81C2072
:100FC00001F0DAF806B010BD5816002000380140D4
:100FD000DC16002000440040341002402C10024077
:100FE0003810024001480068704700BF0019002017
:100FF00030B50100002002002523CB5C022B05D078
:101000000423CB632423C85401201AE00B681B6817
:101010000E24A3430C6823600B681B680124A343C0
:101020000C682360012344240C5D1C2525401C0012
:10103000AC400D6C6C6025240B552423C854100063
:10104000C0B230BD38B50400002005002521615C28
:10105000022904D00420E063012005001EE021687D
:1010600009680E22914322681160216809680122F3
:1010700091432268116001214422A25C1C23134089
:101080000A009A40236C5A602522A15424216054FE
:10109000A06B002802D02000A16B88472800C0B2B6
:1010A00032BD70477047F1B4016842184168480882
:1010B000131800988068C9071ED5494640181BE0E0
:1010C0001778521C0770401C761EF9D1002C13D0E3
:1010D0001678521C89080D40032D01D11578521C39
:1010E000290271184D424119A41C05D00D78491CE4
:1010F0000570401C641EF9D19A420FD01178521C21
:10110000032503260E4002D11678F61C521C0C094A
:101110000F2CD9D114780F34521CD5E700980C301D
:10112000F2BC704770473E00F0B585B00400002C5B
:1011300001D10120C7E2AE4800680C2101400391B3
:10114000AB48006880214902084002902078C0071F
:101150005ED50398082807D003980C280DD1029873
:1011600080214902884208D1A248006880034FD5F7
:10117000606800284CD10120A5E260688021490206
:10118000884206D19B480168802252020A430260CD
:101190001FE06068A021C90288420BD19548016810
:1011A0008022D2020A4302600168802252020A436E
:1011B00002600EE08F4801688F4A0A4002600168B1
:1011C0008022520211400491049901688B4A0A401E
:1011D0000260606800280DD0FFF704FF0500854815
:1011E0000068800314D4FFF7FDFE401B6528F6D38A
:1011F000032068E2FFF7F6FE05007E4800688003E2
:1012000006D5FFF7EFFE401B6528F6D303205AE210
:101210002078800779D5E068019020210198084066
:10122000002807D07348026811430160019820210B
:10123000884301900398042805D003980C2832D1E4
:10124000029800282FD16B480168490704D50199FD
:10125000002901D1012036E2BC490A68BC4B134089
:10126000226912021A430A60016809229143019A15
:101270000A43026000F034FBB6495D4A1268120965
:101280001207120F895CC840B3490860B348006870
:1012900000F080FF6946087068460078002834D066
:1012A000684600780FE2019800281CD0514E306843
:1012B00009218843019901433160FFF793FE05003E
:1012C0003068400706D4FFF78DFE401B0328F7D394
:1012D0000320F8E19D4801689D4A0A4021690902FE
:1012E0001143016011E0434E3068012188433060B2
:1012F000FFF778FE05003068400706D5FFF772FE5D
:10130000401B0328F7D30320DDE12078C00677D502
:101310000398002835D137480068800504D5E06976
:10132000002801D10120CEE188480168AD4A0A4079
:10133000616A1143016001680902090A226A120602
:101340000A4302600120616A490B491C88408021E0
:10135000090248437F49264A126812091207120FF0
:10136000895CC8407C4908607C48006800F012FF36
:101370006946087068460078002841D068460078C1
:10138000A1E1E069002821D01A4E3068802149008F
:1013900001433160FFF726FE05003068800506D462
:1013A000FFF720FE401B0328F7D303208BE167489B
:1013B00001688C4A0A40616A1143016001680902B0
:1013C000090A226A12060A43026019E0094E3068CF
:1013D000BE4901403160FFF705FE05003068800519
:1013E0000ED5FFF7FFFD401B0328F7D303206AE16A
:1013F0000C10024000100240FFFFFEFFFFFFFBFF4A
:101400002078000726D56069002811D0B04E3068DA
:10141000012101433160FFF7E5FD050030688007D9
:1014200018D4FFF7DFFD401B0328F7D303204AE160
:10143000A74E3068012188433060FFF7D3FD0500D7
:101440003068800706D5FFF7CDFD401B0328F7D392
:10145000032038E12078400700D48AE00020694664
:101460004870802040059B4909680140002906D149
:1014700098490A6810430860012069464870964FF1
:101480008026760038683040002810D13868304314
:101490003860FFF7A7FD050038683040002806D106
:1014A000FFF7A0FD401B6528F6D303200BE1A068E1
:1014B000B04204D1864801680E43066024E0A0686B
:1014C000002809D182480168804A0A400260016808
:1014D000824A0A40026017E0A068A021C900884241
:1014E00009D17B4801688022D2000A43026001686A
:1014F0000E43066008E076480168744A0A400260BC
:101500000168764A0A400260A06800280ED0FFF702
:1015100069FD05006E480068800521D4FFF762FD73
:10152000401B6F498842F5D30320CCE0FFF75AFDFA
:10153000050067480068800512D5FFF753FD401B82
:1015400067498842F5D30320BDE000BF0410024084
:10155000FFE0FFFF54630008440300204003002025
:1015600068464078012804D15A4801685D4A0A401B
:1015700002602078800637D5A06900281BD05A4E1B
:101580000121306808433060584802681143016007
:1015900057480168802292010A430260FFF722FD4A
:1015A0000500306880071FD4FFF71CFD401B03288F
:1015B000F7D3032087E04C4E306801218843306028
:1015C0004B4801684B4A0A400260FFF70BFD0500DB
:1015D0003068800708D5FFF705FD401B0328F7D3C7
:1015E000032070E0FF1FFFFFA06A00286AD0039865
:1015F0000C2848D0A06A022833D13F4F3868B2493E
:1016000001403960FFF7EEFC04908026B60438688C
:101610003040002807D0FFF7E5FC0499401A032862
:10162000F3D303204FE0A9480168A94A0A40E16AC0
:101630001143226B0A43616B1143016038688021BA
:10164000490401433960FFF7CDFC0500386830409C
:10165000002837D1FFF7C6FC401B0328F6D3032030
:1016600031E0254E3068984901403160FFF7BAFCFF
:1016700005003068800125D5FFF7B4FC401B032826
:10168000F7D303201FE0A06A012801D101201AE04E
:101690008E48006802900298802149020840E16A61
:1016A00088420DD10298F02189030140206B8142CC
:1016B00006D10298C02109040140606B814201D02B
:1016C000012000E0002005B0F0BD00BFFFFEFFFFDD
:1016D000501002403810024000700040FFFBFFFF36
:1016E00089130000FFFFFFEF081002403410024092
:1016F00020000140FFDFFFFF00100240F2B50400B0
:10170000002C01D10120DEE0724D28680100C907DC
:10171000C90F0098814217D2286801218843009997
:1017200001432960FFF75EFC070028680100C90734
:10173000C90F0098814207D0FFF754FCC01B6649CF
:101740008842F2D30320BEE02078800706D55F48A8
:101750000168F0229143A2680A4302602078C00722
:1017600067D56068022805D15C480068800319D4F9
:101770000120A8E06068032805D15848006880016E
:1017800010D401209FE06068012805D1534800680B
:10179000400707D4012096E050480068800501D436
:1017A000012090E0494E306803218843616801437D
:1017B0003160FFF717FC0700606802280CD1306821
:1017C0000C210140082934D0FFF70CFCC01B424912
:1017D0008842F4D3032076E0606803280CD1306897
:1017E0000C2101400C2924D0FFF7FCFBC01B3A4917
:1017F0008842F4D3032066E0606801280CD1306889
:101800000C210140042914D0FFF7ECFBC01B324926
:101810008842F4D3032056E030680C2101400029AF
:1018200007D0FFF7DFFBC01B2B498842F4D303200E
:1018300049E00126009829683140884215D228687D
:1018400001218843009901432960FFF7CBFB070082
:10185000286830400099884207D0FFF7C3FBC01BBF
:101860001D498842F4D303202DE02078400706D597
:1018700016480168564A0A40E16811430160207821
:10188000000707D511480168524A0A402169C9007A
:101890001143016000F024F84F490C4A1268120904
:1018A0001207120F895CC8404C4908605B48006809
:1018B00000F070FC01000800C0B2002802D008004F
:1018C000C0B200E00020F2BDFFFFFFFE0C1002409E
:1018D000FFFF02FF002002408913000000100240B9
:1018E000F8B52E4806680C213140042904D0082997
:1018F0000AD00C290AD040E049480068C00601D54A
:10190000484800E0484845E0484843E04849B20CB0
:101910001207120F895C0C00B10D8907890F491C51
:101920000D000068C0030BD5200000213F4A0023B2
:1019300000F088F82A00002300F09DF807001AE064
:1019400037480068C0060BD520000021354A002327
:1019500000F078F82A00002300F08DF807000AE074
:1019600020000021304A002300F06CF82A000023F8
:1019700000F081F8070038000CE02E480068400BAA
:101980004007400F009001200099491C88408021A9
:1019900009024843F2BD1148006870470C1002402C
:1019A00080B5FFF7F8FF2449244A1268120A52074B
:1019B000520F895CC84002BD80B5FFF7ECFF1E499D
:1019C0001E4A1268D20A5207520F895CC84002BDF3
:1019D000FFF8FFFFFFC7FFFF546300084403002028
:1019E00010B40F220260154A13689B079B0F4360D7
:1019F0001368F0241C408460E023DB0014681C4062
:101A0000C4601268D208134003610D4A12681300C3
:101A1000DB07DB0F0B6010BC7047000040030020A9
:101A20000010024000093D000024F40000127A007A
:101A30005864000804100240B06400080C10024012
:101A40000020024030B4434351435D18010C0C00A8
:101A5000130C5C432D1980B2434392B251430024CE
:101A6000C918644124040B04090C09195043C01817
:101A7000694130BC7047124224D0994228D970B5D0
:101A800000251B4202D00C00002109E000240126A1
:101A900049186441944200D3A41A7641F8D3310026
:101AA000012601E0764109D2001864416D41A41A73
:101AB0009D41F7D2A4185D41B619F5D3300022003C
:101AC0002B0070BD1B42D8D108B500F09FFB08BDAC
:101AD00001D19042D3D202000B00002100207047B8
:101AE000F446002804D4494200F013F8404260470D
:101AF0004042002905D45FD000F00BF84042494233
:101B00006047494200F005F84942604703460B43ED
:101B1000E6D40022030A8B420BD203098B4219D26E
:101B200043088B422ED2411A00D201465241104640
:101B30007047FF2209023FD012068B4205D31212D2
:101B400009028B4201D31212090203098B4219D3F5
:101B500000E0090AC3098B4201D3CB01C01A5241EC
:101B600083098B4201D38B01C01A524143098B4236
:101B700001D34B01C01A524103098B4201D30B011F
:101B8000C01A5241C3088B4201D3CB00C01A524144
:101B900083088B4201D38B00C01A524143088B4209
:101BA00001D34B00C01A5241884200D3401A52411F
:101BB000CFD201461046704708B500F029FB08BD9A
:101BC0007047430038B504005748216802689142C5
:101BD00021D15649FE2252008A180B7915682B70C4
:101BE00013685B1C1360802292008A1813885B1CA8
:101BF00013801288FA235B009A4203D101228123C9
:101C00009B00CA544A4A13885B1C13800122091D99
:101C1000FEF70EFB0FE047482168026891420AD1A7
:101C200045490A784B680D895A550A89521C0A8120
:101C30000122FEF7FDFA31BD80B53C48411DFE2270
:101C4000520081500022802189004252011D130060
:101C50000B703A4BC25281239B00C254012232487E
:101C6000FEF7E6FA01BD38B505000C00FA239B002B
:101C7000220092B229002C48FEF762FA31BDFEB56F
:101C800007000E00052100226C46200000F0C2FA79
:101C90000A226946300080B200F0E4FA0521684665
:101CA00000F0DCFC234DFA24640023000522694681
:101CB0002800FEF745FA2300320092B239002800CE
:101CC000FEF73EFAF7BD00B51849802080000818DD
:101CD0000288002A0FD0194A891802880B889A4274
:101CE00001D102200CE002880B889A4208D00088BB
:101CF0000880012004E00088002801D10020FFE7CF
:101D000000BD38B5094C651DFA214900280000F0D6
:101D100047FB002080218900605208496052FE2064
:101D20004000255031BD0000581600200000002062
:101D300040190020DC160020880300200202000069
:101D400080B500F071FD00F01EF800F083FDFFF794
:101D5000ABF8FFF7C1F800F0C5FDFFF76DFF0122FA
:101D60002E492F48FEF764FA0C212E48FFF787FF13
:101D700000F03CFE00F042FE00F054FE00F0F5FEE4
:101D800001F0A4F8FEE738B59CB038210024220009
:101D90000EAD280000F03EFA142122006D46280006
:101DA00000F038FA2421220005AD280000F032FAB4
:101DB0001D4801681D4A0A40802109011143016044
:101DC0000A200E9001251195102012901395189459
:101DD0000EA8FFF7A9F9002801D000F033F80F2072
:101DE0000090019502940394049400216846FFF743
:101DF00085FC002801D000F025F8232005900794E9
:101E0000089480208002069005A801F0A5F800281B
:101E100001D000F017F81DB030BD0000880300208D
:101E2000DC1600203802002000700040FFE7FFFFB2
:101E300010B5040020688021C905884201D101F055
:101E400087F910BD00B572B6FEE710B504000800B2
:101E500011000200200000F0DDF9200010BDFEE7B7
:101E6000FEB5020000230020019000240868D8403D
:101E7000002800D1FFE0012508682E009E400640A2
:101E800001960198002800D1F3E00326486830400D
:101E9000012803D048683040022820D19768BC460A
:101EA0001F00022047433000B84067468743009731
:101EB000C86884461F00022047436046B840009F20
:101EC00038430290029890605768280098408743F2
:101ED0004868000928409840384304005460486826
:101EE0003040032814D0D768BC461F000220474367
:101EF0003000B840674687430097886884461F00D3
:101F0000022047436046B840009F38430400D46035
:101F100048683040022824D1D80804277843101894
:101F2000006A0290029F00970F208446180047071E
:101F30007F0F042047436046B840009F87430097C7
:101F400008698446180047077F0F0420474360460E
:101F5000B840009F38430400D8080427784310187D
:101F600004621768BC461F00022047433000B84097
:101F70006746874300974868304084461F00022028
:101F800047436046B840009F3843040014604868E7
:101F9000C027BF020740002F6BD0374807682F4388
:101FA0000760364884469F08042047436046C0596E
:101FB00000900F27BC461F003000384004277843AC
:101FC000674687400098B843A027FF05BA4201D171
:101FD000002517E0314CA24214D0314CA24201D16D
:101FE00002250FE02F4CA24201D135000AE02E4C11
:101FF000A24201D1042505E02C4CA24201D10525C5
:1020000000E006251C00264004246643B540054335
:102010001A489C08042674430551254C2068019EEB
:10202000B0434E68F60302D50500019828432060AE
:10203000204D2C68019EB4434E68B60302D52000A3
:10204000019C04432C601C4D2868019EB0434E68DF
:10205000F60202D50400019820432860174D2C6831
:10206000019EB4434E68B60202D52000019C044391
:102070002C605B1CFAE6F7BD3410024008000140FA
:1020800000B51300DBB2002B03D00B009BB28361C1
:1020900002E00B009BB2836200BD00000004005010
:1020A00000080050000C005000100050001C0050B0
:1020B0000004014004040140080401400C040140F4
:1020C00000B5010049B2002905D40121C206D20E93
:1020D00091402D4A116000BDF0B5020052B2002AB5
:1020E0001CD40322294B040064B2A40804256C43C9
:1020F0001C59FF251600064008277E43B540AC4317
:102100008D01EDB20240082672439540254302003E
:1021100052B29208042462439D5022E00F241C4ACC
:10212000032305006DB22540083DAD080426754324
:10213000060076B23440083CA408042674431659BD
:10214000FF27BC461C00044008277C436746A74085
:10215000BE438C01E4B2034008277B439C403443D8
:102160005451F0BD70B505000C0016002100280088
:1021700040B2FFF7B1FF70BD10B50400200040B2BF
:10218000FFF79EFF10BD000000E100E000E400E06A
:102190001CED00E0F1B588B0002402940194002207
:1021A00008990F20FFF7DEFF0F20FFF7E5FF134828
:1021B000016801220A430260694603A8FFF710FC88
:1021C000FFF7EEFB070038000D49FFF7A2FC050002
:1021D0006D1E0C4E8020C00530600B48F0607560AD
:1021E0003461B460300000F0BFFF002803D130003C
:1021F00000F0E0FF00E0012009B0F0BD381002401F
:1022000040420F00B4170020E70300007047FEE7CC
:102210007047FEE71206130A1A43130C1A4300BF55
:10222000094205D0830705D00270401C491EF9D130
:10223000704700001300103906D330B414001500A5
:1022400010393CC0FCD230BC490700D30CC000D5CB
:1022500004C0890002D30280801C002900D50270CE
:102260007047FEE7FEB504000F0016003D00022E89
:1022700001DB242E02DB0020287022E0019401986B
:10228000002801D5604204004D4800902000310034
:10229000FFF73CFC0098405C28706D1C200031006A
:1022A000FFF734FC0400002CEED10198002802D581
:1022B0002D2028706D1C00202870691E380000F049
:1022C00001F8F7BD00B5884207D20B781A000378F1
:1022D0000B70491E0270401CF5E700BDFFB50020E1
:1022E0000100009A029B040005002E006F46BF8883
:1022F000B6B2BE421AD216781F78BE4213D106007B
:102300000100040026006F46BF89B6B2BE420BD260
:1023100016782700BFB2DF5DBE4205D1491C6D1C97
:10232000521C641CEEE7521C6D1CDEE708006D4673
:10233000AD8980B2A84201D1012000E0002004B0A4
:10234000F0BDFFB50100002000900600070002006C
:102350000B00029C05002E006F46BF88B6B2BE423D
:102360001BD21E782778BE4212D1521C029E170043
:10237000FFB2F61934001600F6B26F46BF89B6B246
:10238000BE4207D11000C0B246429819401C05E079
:10239000060032005B1C6D1CDDE7002004B0F0BDC0
:1023A00030B500231A0014000D00A4B2ADB2AC4247
:1023B00005D21C001500ADB24455521CF3E730BDE8
:1023C00014030020F3B583B000221400082101ADEE
:1023D0002800FFF71FFF01AD039E002E16D0102727
:1023E00030003900FFF792FB009100980A2803DAC9
:1023F00000983030285502E0009837302855641C8A
:1024000030003900FFF782FB0600E6E721000129D2
:1024100008DB6818401E0078049A12194B42D05409
:10242000491EF4E7012005B0F0BDF2B5B6B00700D3
:102430000221002632006C462000FFF7EBFEC82187
:10244000320004AC2000FFF7E5FE340001963000B6
:102450006946887036A800880390029704AD039AF5
:102460000299280000F0E8FF36A801883800FFF73D
:1024700097FF3500280036A9098880B288421DD20E
:1024800002216846FFF78CFF04A8290089B2405C4E
:10249000019069460198FFF795FF30000100C9B22D
:1024A000022909DA69460200D2B2895C220092B29E
:1024B000B954641C401CF1E76D1CDBE7012037B008
:1024C000F0BDFEE700B502000020B34B1B689B1A6D
:1024D0008B4201D3012000E0002000BD18B585B07B
:1024E0000721002203AC2000FFF794FE0022072101
:1024F00003A800F021F9A94802905F200190002074
:10250000009001230022072103A800F0DFFABE4853
:102510000178212903D0012000F00DFDF7E71521F6
:102520000170012006B010BD1FB50721002201ACCB
:102530002000FFF76FFE0122072101A800F0FCF840
:102540000120009062230022072101A800F093FAE5
:10255000AD480178212903D0012000F0ECFCF7E719
:10256000192101700120A9490870012004B010BD93
:1025700038B586B0002215000C2103AC2000FFF70F
:1025800049FE03A800F00CF903A800F063FF040063
:1025900082480290632001900020009001230022D5
:1025A0002100C9B289B203A800F090FA96480178D8
:1025B000212903D0012000F0BEFCF7E715210170AE
:1025C000012007B030BD0120704700B59048018957
:1025D00000290DD001894289914201D102200CE0ED
:1025E00001894289914208D001894181012004E09A
:1025F0000089002801D10020FFE700BD10B5844C00
:10260000A1896068FFF7CCFE002020816081012055
:1026100010BD38B500252800C0B204281CDA7C485B
:102620007C4C2900C9B21022514361180B89290042
:10263000C9B21022514361184A6801894068FFF706
:102640004DFE012806D12800C0B2102148432018B1
:10265000C06880476D1CDEE7012032BDFEB5060074
:102660000F0005210024220001AD2800FFF7D2FD54
:10267000200069460880300000F0ECFE05003100C3
:1026800001A800F0EFFE20000100C9B23A0089B2B3
:1026900092B2914205D230210200D2B2B154401C14
:1026A000F2E72000C0B2290080B289B2884214D279
:1026B000380080B230182100C9B24A428018401E4A
:1026C00001A92A0092B289182200D2B25342C91835
:1026D000491E09780170641CE3E7F7BD80B54E49D7
:1026E0004E4800888880002300224D48006800F092
:1026F00065FF012002BD7CB50600052100226C4665
:102700002000FFF787FD0A226946B088FFF7AAFD7F
:1027100005216846FFF7A2FF424DFA24640023001A
:10272000052269462800FDF70BFD2300B2883168B9
:102730002800FDF705FD73BDF8B507000E00150074
:1027400000240094324833492A00D2B210235A435D
:102750008A1813898C462A00D2B210214A43614656
:1027600089184A6801894068FFF7EBFD01000029DC
:1027700001D100200FE02000C0B2320080B292B23E
:10278000904207D22000C0B2085C2200D2B2B854F6
:10279000641CF0E70120F2BDD418002004150020CD
:1027A000F8B5050000242700032122006E46300002
:1027B000FFF730FD2600164816490B8D4A6A01893D
:1027C0004068FFF7BEFD0100002901D100201AE09A
:1027D0000E1D20000100C9B2032908DA0100C9B2A8
:1027E000715C6A460300DBB2D154401CF2E76846D4
:1027F00001F086F90100F21C8C4203DA105D2855C5
:10280000641CF9E70120F2BD0802002045190020F0
:1028100088030020480300203002002040190020D7
:10282000F8180020DC16002010B5002408480168C4
:1028300040220A4302600020FFF7ACFC002802D0CF
:102840000120040001E001F063F92000C0B210BDD6
:1028500000200240F8B586B01422002101A8FFF73D
:10286000F4FA04211D4802680A430260026811401C
:102870000091009901240168214301600168214011
:1028800000910099022102680A4302600068014039
:1028900000910098C0256D00A027FF0500222900A7
:1028A0003800FFF7EDFB0E4E002203213000FFF74A
:1028B000E7FB0195029400250395049501A93800D2
:1028C000FFF7CEFA0320019002940395049501A925
:1028D0003000FFF7C5FA07B0F0BD00BF2C10024072
:1028E00000040050F8B590B0142200210BA8FFF7A7
:1028F000ACFA042200216846FFF7A7FA282200213B
:1029000001A8FFF7A2FA364D3648286000246C6013
:102910007F20A860FF20E8602C616C61AC61EC61F5
:10292000280001F00DF9002801D0FFF78BFA0BA861
:102930000A21017032274770210081700E940F9494
:1029400000220BA9280001F06BF9002801D0FFF745
:1029500079FA01266846310001703100417031007A
:1029600081702100C17000226946280001F0F0F951
:10297000002801D0FFF766FA01A80A21017047700C
:102980001421817002940494059480210906069113
:102990000794089420214654802040000A90002289
:1029A00001A9280001F060FA002801D0FFF74AFAD7
:1029B00011B0F0BD10B5040020680A4988420DD15D
:1029C000094801688022D2020A43026000220321E2
:1029D0000220FFF7C7FB0220FFF7CEFB10BD00006F
:1029E0001C18002000280040501002404C484D495F
:1029F000C1603C2101830121817670474A484B49DF
:102A00000160C8214160002101720122C26001748D
:102A10002721418246494161464901624649097878
:102A200041627047454846490160C8214160002124
:102A30000172142141810321C1604249016142496F
:102A40004161704780B541488168012912D14168D0
:102A5000006801F0ECFB01280CD13D48007800280B
:102A600008D13C4917200870002300223A4800682A
:102A700000F0A4FD01BDFEB506000C00089F304D1E
:102A8000C8212800FFF78CFC00200100C9B22200F9
:102A900089B292B2914207D20100C9B2715C0200C0
:102AA000D2B2A954401CF0E72748076023490D60C3
:102AB000C8224A606A4612790A726A4612894A81B5
:102AC0000122CA600A6915604861F7BDFFB581B08F
:102AD0000A9F0B9E0C9C154DC8212800FFF760FC37
:102AE00000200100C9B26A46128989B2914208D217
:102AF00001990200D2B2895C0200D2B2A954401CF2
:102B0000EFE709486946097B01720499C1600774BF
:102B100046824461056269460989416205B0F0BD9B
:102B2000BC020020A0640008F41700203C14002020
:102B3000A062000848020020E203002040180020A4
:102B400004150020B0020020AC020020BC180020B8
:102B50004319002044190020FC1800208D4B03600D
:102B6000A84B0B6080231360704780B59CB0002297
:102B70000121322000F0ECFC874908600022082186
:102B8000052000F0E5FCA049086015A89F491C221B
:102B900000F038FC002115A800F09DF99C49086060
:102BA0000EA89C491C2200F02DFC00210EA800F06C
:102BB00092F99949086007A8A7491C2200F022FC55
:102BC000002107A800F087F9A44908606846A449D5
:102BD0001C2200F017FC0021684600F07CF9A9498E
:102BE00008601DB000BDF8B50600A74C822080002B
:102BF000271800252800387001F03EFB387800289F
:102C000034D0012838D0022840D0032843D00428EB
:102C100037D0052844D0062847D007284AD00828AE
:102C20004DD0092850D00A2853D00D2856D00E2850
:102C300059D00F285CD010285FD0112862D01228FC
:102C400000D18FE0132862D0142865D0152868D0F1
:102C500016286BD017286ED0182874D0192877D072
:102C60001A287AD0212800D18EE08DE001F045FBB2
:102C7000864800F060F987E00221012001F060FB46
:102C800082E00221042001F05BFB7DE003210220B1
:102C900001F056FB78E00521032001F051FB73E0C1
:102CA0000621052001F04CFB6EE00721062001F013
:102CB00047FB69E00821072001F042FB64E009219D
:102CC000082001F03DFB5FE00A21092001F038FBFC
:102CD0005AE00D210A2001F033FB55E00E210D20B2
:102CE00001F02EFB50E00F210E2001F029FB4BE0FC
:102CF00010210F2001F024FB46E01121102001F0EB
:102D00001FFB41E01321112001F01AFB3CE01421CC
:102D1000132001F015FB37E02121142001F010FBF6
:102D200032E01621152001F00BFB2DE021211620A9
:102D300001F006FB28E001205549087018211720F2
:102D400001F0FEFA20E02121182001F0F9FA1BE041
:102D50001A21192001F0F4FA16E021211A2001F0BD
:102D6000EFFA11E0122001F0FFF9012808D14948DB
:102D7000856001F0E1FB12214748FEF780FF02E089
:102D80002078401C2070FFE7FFF75CFE322000F047
:102D9000D2F831E760170020FC180020F1B582B0AE
:102DA000002738003D49096800912821009801F06A
:102DB0003EFA0128F9D1394800680090324C384871
:102DC000251838002870FEF77EFF0228EDD1354E19
:102DD00030880028E9D082208000205C01F032FA9F
:102DE000287031480078012801D101F0CFFBFFF7AE
:102DF00075FCA0780028D8D0FEF783FF380030801B
:102E0000D3E70000E40F0020F8180020C06100089C
:102E1000D8180020DC610008DC18002070B506001E
:102E200000201E4C256828212800FFF74BFB0128B5
:102E30000DD120680500FFF7C8FB022807D11B4809
:102E40000089002803D0FFF7E4FBFFF7D7FB0A2037
:102E500000F071F8E7E70000F8610008E0180020D2
:102E6000146200081CB504000022D24369461048D1
:102E7000006800F04BFC6846FFF73DFC012000F0C5
:102E80005AF8F1E7E4180020000000208813000041
:102E900043190020BC1800208C620008D4180020C0
:102EA0000902000040190020451900208803002075
:102EB000F818002000B5010000200A0012B2842A90
:102EC00003D00A0012B2D21C801800BD80B501F0F8
:102ED000C9FC002002BD38B584B004000D00606953
:102EE000002813D0A069002810D00820205EFFF72A
:102EF000E1FFA16902916169019100902B002269B3
:102F00002168606801F08CFB039011E00820205ECE
:102F1000FFF7D0FF03A9019100902B00226992B224
:102F20002168606801F0B4FB012801D0002000E0B6
:102F3000039805B030BD70B50400012620003100B3
:102F4000FEF7E7FD0500002D01D02E00FFE7300061
:102F500001F060FC002070BDFEB504000020694651
:102F600008702078800600D48EE0207880068020CB
:102F70004005694909680140002906D166490A6887
:102F80001043086001206946087080277F00634D68
:102F900028683840002811D1286838432860FEF797
:102FA00021F8029028683840002807D1FEF71AF867
:102FB0000299401A6528F5D30320ACE05848006810
:102FC000C021890301406068C022920302409142FF
:102FD0000BD0C020800262680240824205D1504876
:102FE0000068800301D5012095E04E4DC026B60251
:102FF0002868304001900198002829D00198616824
:103000003140884224D02078800621D5286846495E
:103010000140019128688021090301432960286843
:103020004249014029600198286001980740002F1B
:103030000ED0FDF7D7FF02902868800508D4FDF771
:10304000D1FF0299401A3A498842F5D3032062E041
:1030500060683040B04209D131480168354A0A40C1
:103060006168C0239B030B401343036028686168B9
:103070000E4006432E6068460078012804D1264899
:1030800001682D4A0A4002602078C00706D52B4807
:10309000016803229143A2680A43026020788007F6
:1030A00006D5264801680C229143E2680A43026073
:1030B0002078400706D521480168214A0A40216945
:1030C000114301602078000706D51C4801681D4A9D
:1030D0000A406169114301602068C00506D51748A0
:1030E0000168114A0A40A169114301602078400635
:1030F00006D512480168144A0A40216A114301604A
:103100002078000606D50D480168104A0A40E1699A
:10311000114301600020FEBD3810024000700040E5
:103120000010024050100240FFFFFCFFFFFFF7FFBE
:1031300089130000FFFFCFFFFFFFFFEF4C1002409D
:10314000FFF3FFFFFFCFFFFFFFFFFFFBFFFFF3FFDB
:1031500003480168034A127889180160704700BF6C
:1031600000190020E303002010B50400002C01D159
:1031700001201EE03920205C002805D100203821E4
:103180006054200000F03CF9022039216054211DD8
:10319000206800F0FDF801203E2160543A2160547F
:1031A0003B2160543C2160543D21605439216054DE
:1031B000002010BD10B501003920085C012801D0A5
:1031C00001202CE002203923C85401200B68DB6861
:1031D00003430C68E3600B688024E405A3420BD032
:1031E0000B680F4CA34207D00B680E4CA34203D0D0
:1031F0000B680D4CA3420CD10B689B685B075B0FFF
:103200001A00062A0AD00B681B6818430B6818605E
:1032100004E00B681B6818430B681860002010BDA1
:1032200000040040000801400014014070B5040093
:10323000022620680069304000281CD02068C06841
:103240003040002817D00220C043216808610120C7
:103250002076206880698007800F002803D0200036
:1032600001F016FE05E0200001F013FE200001F041
:1032700011FE0020207604252068006928400028DF
:103280001CD02068C0682840002817D00420C04304
:1032900021680861267620688069C0218900014084
:1032A000002903D0200001F0F3FD05E0200001F02B
:1032B000F0FD200001F0EEFD0020207608262068B9
:1032C0000069304000281BD02068C06830400028CA
:1032D00016D00820C0432168086125762068C0699F
:1032E0008007800F002803D0200001F0D1FD05E009
:1032F000200001F0CEFD200001F0CCFD0020207662
:10330000102021680969014000291CD02168C96882
:103310000840002817D01020C04321680861267695
:103320002068C069C02189000140002903D0200025
:1033300001F0AEFD05E0200001F0ABFD200001F042
:10334000A9FD00202076012021680969014000299B
:103350000BD02168C9680840002806D00120C0436E
:10336000216808612000FEF763FD4020216809699B
:10337000014000290BD02168C9680840002806D008
:103380004020C04321680861200001F084FD70BD29
:1033900010B502688023DB05984208D0144CA04287
:1033A00005D0144CA04202D0134CA04204D170248A
:1033B000A24314004A682243984208D00C4B98421A
:1033C00005D00C4B984202D00B4B984203D10B4BCB
:1033D0001340CA681A4380239A430B69134303605E
:1033E0008A68C2620A6882620122426110BD0000DE
:1033F000000400400008014000140140FFFCFFFFF2
:103400007047FEE770B4103A03D378C9103A78C019
:10341000FBD2530701D318C918C001D508C908C089
:10342000D20704D30B880380891C801C002A01D595
:103430000B78037070BC70478B0701D18307E1D014
:10344000124205D00B78491C0370401C521EF9D162
:103450007047FEE7431C0178401C0942FBD1C01AAB
:103460007047FEE731B48B0707D00B780370002B51
:1034700020D0401C491C8B07F7D1164CE50183076F
:1034800022D104C9131B93432B4205D104C004C9A4
:10349000131B93432B42F9D0FF231A42027009D029
:1034A000120A1A42427005D0120A1A42827001D0E2
:1034B000120AC27031BC70470270120A4270120ABE
:1034C0008270120AC270001D04C9131B93432B4261
:1034D000F2D0E1E70101010170B505000C002E00FA
:1034E000002E01D172B6FEE701F00EFD3068F16BDF
:1034F000326C51434018B0600020B0633068706097
:103500003068F16B491E326C51434018F060002066
:10351000C0434421705445217054002C0BD13069B4
:10352000002810D03000103001F002FB00280AD033
:1035300001F0E0FC07E03000103001F031FD300018
:10354000243001F02DFD01F0E9FC012070BD0000E8
:10355000F7B505000F00002D01D172B6FEE7002F70
:1035600001D1002401E02C007C432000483001F010
:1035700065FD0600002E0DD030004830019000207F
:103580004621705400966846037A019A3900280053
:1035900000F002F83000FEBDF8B506000C00170080
:1035A000069D002C01D12D6000E02F60EE632C649D
:1035B00001212800FFF790FFF1BD0000FCB583B0AA
:1035C00007000E00002500953C00002C01D172B6CA
:1035D000FEE7002E02D1206C002801D1012000E07E
:1035E0002800C0B2002801D172B6FEE70498022874
:1035F00002D1E06B012801D1012000E02800C0B217
:10360000002801D172B6FEE701F093FB002802D139
:103610000398002801D1012000E02800C0B2002852
:1036200001D172B6FEE701F06FFCA06BE16B88423E
:1036300002D30498022819D1049A3100200000F026
:10364000FDF80500606A002808D02000243001F051
:103650006FFA002806D001F04DFC03E0002D01D0E8
:1036600001F048FC01F05AFC01204CE003980028CE
:1036700003D101F053FC002045E00098002804D15C
:1036800001A801F095FA0120009001F047FC01F03B
:103690001FF901F039FC0020C043442161568142EA
:1036A00002D129004422A15445216156814202D110
:1036B00028004521605401F031FC03A901A801F064
:1036C00083FA002819D1200000F064F900280ED0F8
:1036D00003992000103001F011FA200000F015F9D4
:1036E00001F0FCF800289ED101F004FC9BE72000CB
:1036F00000F00BF901F0F2F895E7200000F005F971
:1037000001F0ECF8002005B0F0BD0000F4B584B085
:1037100007000E00002401943D00002D01D172B677
:10372000FEE7002E02D1286C002801D1012000E024
:103730002000C0B2002801D172B6FEE701F0F9FA0C
:10374000002802D10498002801D1012000E02000C7
:10375000C0B2002801D172B6FEE701F0D5FBA86B1C
:1037600000900098002815D03100280000F0B3F830
:103770000098401EA8632869002807D02800103050
:1037800001F0D6F9002801D001F0B4FB01F0C6FB2E
:10379000012051E00498002803D101F0BFFB002074
:1037A0004AE00198002804D102A801F001FA0120A2
:1037B000019001F0B3FB01F08BF801F0A5FB0020B4
:1037C000C04344216956814202D121004422A954B8
:1037D00045216956814202D120004521685401F0FB
:1037E0009DFB04A902A801F0EFF9002819D12800D7
:1037F00000F0C2F800280ED004992800243001F00F
:103800007DF9280000F081F801F068F80028A4D1C3
:1038100001F070FBA1E7280000F077F801F05EF8F6
:103820009BE7280000F071F801F058F8280000F03C
:10383000A3F8002891D0002005B0F0BDF3B583B007
:103840000400170000260096A56B206C002808D104
:103850002068002839D1A06801F084FA0090A660A1
:1038600033E0002F14D1206C029004980190666818
:10387000029A01993000FFF7DFFD6068216C401863
:1038800060606068A16888421FD3206860601CE0A7
:10389000206C029004980190E668029A0199300029
:1038A000FFF7CAFDE068216C4A428018E060E068DA
:1038B0002168884204D2A068216C4A428018E060E6
:1038C000022F02D1002D00D06D1E2800401CA063E5
:1038D000009805B0F0BDF8B504000D00206C00287C
:1038E00012D0E068216C4018E060E068A16888426E
:1038F00001D32068E060206C0090E6682F00009AF9
:1039000031003800FFF798FDF1BDF8B5040001F073
:10391000FBFA45202556280040B201280CDB606ADE
:10392000002809D02000243001F002F9002801D03D
:1039300001F081F96D1EEEE70027FF434520275473
:1039400001F0ECFA01F0E0FA44202656300040B2D3
:1039500001280CDB2069002809D02000103001F07C
:10396000E7F8002801D001F066F9761EEEE7442062
:10397000275401F0D3FAF1BD38B5040001F0C4FAC0
:10398000A06B002801D1012500E0002501F0C6FA56
:10399000280032BD38B5040001F0B6FAA06BE16B27
:1039A000884201D1012500E0002501F0B7FA280086
:1039B00032BD0000FCB587B00C001500002B01D013
:1039C000002119600390064600E0761C307801F073
:1039D00043FC0028F9D1300001782D2901D02B2992
:1039E00003D16A461170401C02E02B216A46117017
:1039F0000194002D03D4012D01D0252D04DB002CD2
:103A000054D00398206051E0002D0ADD102D16D10E
:103A10000178302913D1417820220A43782A0ED127
:103A20000AE00178302901D00A2508E041782022F7
:103A30000A43782A02D11025801C00E00825069050
:103A400000E0401C01783029FBD0002405902B4A6F
:103A50007A44A83228326B465A700295049F0500BA
:103A60000494264E7E44943608E0049469464978CE
:103A7000471AFFB202984443E4196D1C287801F0FC
:103A8000F4FB029A01003000283001F0F7FB002817
:103A9000EBD1029938002F00049D069ABA4207D153
:103AA0000198002802D0039801990860002022E0C4
:103AB000059ABA1A735CD21A002A11D405DC201AAE
:103AC00003D3FEF726F8A8420AD000BF00BF08982B
:103AD000002802D00120089908600024E44305E092
:103AE000684600782D2801D1604204000198002822
:103AF00000D00760200009B0F0BD00BFB82400006E
:103B000080B5FFE700230A220021FFF753FF02BD23
:103B100080B50948016801220A430260074801682C
:103B2000802252050A430260002203210120C04383
:103B3000FEF718FB01BD00BF3410024038100240F0
:103B400010B50400002C01D1012068E02120205C88
:103B5000002805D10020202160542000FEF72AFF14
:103B6000022021216054CA20216848625320216824
:103B70004862200000F0C0FA002807D0FF2021682A
:103B80004862042021216054012048E020688068B8
:103B90006E49014020688160206880686168226900
:103BA0000A43A1691143014320688160E0682168EC
:103BB000086120680069A168090401432068016167
:103BC0002068C068802188432168C8602068C06C74
:103BD000032188432168C8642068C06CE169626978
:103BE0000A4302432068C2642068806880060FD4BC
:103BF000200000F065FA00280AD0FF202168486202
:103C0000042021216054002020216054012006E07E
:103C1000FF2021684862012021216054002010BD4E
:103C2000F7B504002020205C012801D102208CE09F
:103C3000012528002021605402202121605402988F
:103C4000002820D120688068400602D40020019915
:103C5000C8700198007800F077FA07000198407862
:103C600000F072FA06000198807800F06DFAFFB259
:103C70003904F6B232020A43C0B210430199C9783E
:103C80000E04064314E020688068400602D4002039
:103C90000199C870019800780004019949780902D7
:103CA00001430198807808430199C9780E040643BE
:103CB000CA2021684862532021684862200000F031
:103CC0001BFA00280AD0FF20216848620420212125
:103CD0006054002020216054012036E05F483040CD
:103CE00021680860206880685D4901402068816023
:103CF000206880680199C968019A12690A430243E1
:103D0000206882602068C068802188432168C8607C
:103D10002068806880060FD4200000F0D1F90028C8
:103D20000AD0FF202168486204202121605400202D
:103D300020216054012008E0FF20216848622120F2
:103D400025540020202160540020FEBDBFFF8FFFBE
:103D5000F7B504002020205C012801D102207CE07E
:103D6000012528002021605402202121605402985E
:103D700000280AD101984078C00606D501984078FD
:103D8000EF2101400A31019841700298002819D1B1
:103D90000198C07800F0D8F907000198407800F049
:103DA000D3F906000198807800F0CEF9FFB239040B
:103DB000F6B232020A43C0B21043019909784E03A9
:103DC00006430DE00198C078000401994978090282
:103DD0000143019880780843019909784E0306430E
:103DE000CA2021684862532021684862200000F000
:103DF00083F900280AD0FF2021684862042021218D
:103E00006054002020216054012026E015483040F5
:103E1000216848602068C068802188432168C860A4
:103E20002068806880060FD4200000F049F900283F
:103E30000AD0FF202168486204202121605400201C
:103E400020216054012008E0FF20216848622120E1
:103E500025540020202160540020FEBD7F7F7F007C
:103E6000FFFFFBFF3FFFFF00F7B505000C00202020
:103E7000285C012801D10220E6E0012020216854BD
:103E8000022021216854029800282CD128688068DB
:103E9000400601D40020E070E0690028FFD02078BF
:103EA00000F052F90700607800F04EF90600A078A3
:103EB00000F04AF9694608702020205C00F044F9BF
:103EC000FFB23904F6B232020A4369460978114357
:103ED000E27812040A43C0B200061043E1690143CC
:103EE00067690F431AE028688068400601D4002003
:103EF000E070E0690028FFD02078000461780902B2
:103F00000143A0780843E178090401432020205CA4
:103F100000060843E169014367690F436068A169CE
:103F200001430091CA2029684862532029684862E9
:103F3000606A80214900884239D1286880684349F5
:103F40000140286881602868C06880210840424993
:103F500001432868C160FDF745F806002868C0687D
:103F6000C00710D4FDF73EF8801B39498842F5D3CD
:103F7000FF20296848620320212168540020202165
:103F80006854032060E02868C76100982968486485
:103F9000286880688021490001432868816028687A
:103FA00080688021490101432868816038E02868E1
:103FB000806828490140286881602868C06880219D
:103FC00008403E4901432868C160FDF70BF8060030
:103FD0002868C068800710D4FDF704F8801B1C49CE
:103FE0008842F5D3FF2029684862032021216854C4
:103FF000002020216854032026E0286807620098EA
:1040000029688864286880688021890001432868BD
:104010008160286880688021890101432868816067
:104020008020800233490A6802430A6042490A68D4
:1040300010430860FF20296848620120212168544C
:104040000020202168540020FEBD0000FFFEFFFF7D
:10405000E9030000FFFDFFFF7FFEFFFF10B5040036
:1040600020688068C0040ED52068C068C0050AD5E5
:10407000200001F00EF92068C068802108402F4917
:1040800001432068C1602068806880040ED52068E4
:10409000C06880050AD5200001F0FCF82068C068DF
:1040A00080210840054901432068C16080208002CA
:1040B0002349086001202121605410BD7FFDFFFFCE
:1040C00038B504002068C068A02188432168C86012
:1040D000FCF788FF05002068C068800607D4FCF75D
:1040E00081FF401B17498842F5D3032000E00020E0
:1040F00032BD00000004014070B504004026206875
:10410000C0683040002813D10020C0432168C86037
:10411000FCF768FF05002068C0683040002807D120
:10412000FCF760FF401B07498842F4D3032000E0FE
:10413000002070BD00000000080401407FFEFFFF6A
:1041400014040140E903000000B50100002208004A
:104150000300DBB20A2B02D3521C0A38F8E7120123
:104160001043C0B200BDFEE7FEB50400002007000A
:10417000714E0100317069460870704D2000C0B268
:10418000202148432818406800280DD02000C0B2E4
:1041900020214843281801892000C0B22022504322
:1041A00028184068FDF75FFD2000C0B22021484379
:1041B0002818006900280FD12000C0B220214843F0
:1041C0002818C069002807D02000C0B22021484329
:1041D0002818C069804729E0BC4800680190200089
:1041E000C0B2202148432818C168019800F01FF888
:1041F000012805D00520FEF79EFE30780128EED17B
:104200003778307801280FD12000C0B220214843F0
:104210002818C069002807D02000C0B220214843D8
:104220002818C069804707003800C0B2FEBD00B53D
:104230000200A6480068831A8B4201D3012000E0E7
:10424000002000BD10B504003C482100C9B2202266
:10425000514341188B8A2100C9B220225143401892
:1042600002699B4801889C48FEF738F8002801D075
:10427000012000E0002010BD10B5964C60780028A9
:1042800002D0012818D023E020780A2813D1FDF7A6
:1042900038FD002001002170012182229200A154EA
:1042A0009F4902008A7302004A730200CA73886041
:1042B000087300F00EF80BE0FDF723FD002001006D
:1042C00021706070012082218900605400F001F8A3
:1042D00010BD10B5974C012201212000FDF7D0FE42
:1042E0004B2000F0D9FF002201212000FDF7C8FE7D
:1042F000FA20C00000F0D0FF10BD38B59D4D2878E1
:10430000002817D1A024E405012280212000FDF718
:10431000B7FEAF20800000F0BFFF00228021200008
:10432000FDF7AEFEFFF7D5FFFA20C00000F0B4FFA6
:104330000420287031BD00000902002074530008D9
:10434000F3B581B0634E00242000B0706846007958
:10435000FFF70AFF002832D0012800D0AFE082200A
:10436000800030186946097A0170210031700078A8
:10437000142804D0162812D0182819D01EE0684836
:10438000012181605149096801607B494160210038
:104390004173200079490870794804700EE02000CC
:1043A000784908725E48494909680160C47305E0AC
:1043B000464800685A4908607148047083E03078C4
:1043C000401C30708220800035182878052873D072
:1043D00011280AD0142811D0152818D0162825D055
:1043E000182842D01A2854D068E03078032802DB1D
:1043F0001220287001E0102028705FE04848417BBF
:10440000491C4173122028707C49087056E006232D
:104410007B4A2F480188701DFDF760FF012804D1F9
:104420003F48846010212970047347E03C4FF87BBB
:10443000401CF873012053490872F87B032802D10D
:104440001220287001E015202870152038730623EB
:104450006B4A1F480188701DFDF740FF012803D1FA
:10446000BC60102028703C7328E02D4FB87B401CA6
:10447000B873122028700623614A15480188701D00
:10448000FDF72CFF012803D1BC60102028703C737D
:1044900014E0192028705B4F38700623584A0C48E6
:1044A0000188701DFDF71AFF012804D11C488460A3
:1044B000102028703C7001E00520287003E00421E2
:1044C0005148FDF7DCFB0120B070F7BDD418002087
:1044D00040190020000000200500002070B50400F5
:1044E0000D00160020002900C0B2C9B2884200D3D6
:1044F000B04770BD1C2046490870704710201D4908
:10450000087000202049487370471020194908702E
:1045100000201D49C873704710203D49087070473E
:10452000BC18002010201349087000201649887319
:10453000704700000004005038B500242000C0B2CD
:10454000052815DA33482100C9B208225143411821
:104550004A682100C9B20823594341184978230009
:10456000DBB208256B43C05CFFF7B8FF641CE5E7CE
:1045700031BD00000802002050C300004219002095
:1045800043190020F4170020BC180020F0B5B3B088
:10459000C8210024220001AD2800FDF73BFE009455
:1045A00025001D4E3000FEF755FF070020003900A2
:1045B00080B289B2884208D2200080B2305C01A962
:1045C000220092B28854641CF0E7390089B201A835
:1045D000FDF72BFF01A8FEF73DFF040023009BB26F
:1045E00001AA0A4801880D48FDF7ABFE0100002929
:1045F00001D0012000E0002033B0F0BD44190020BC
:1046000090640008C818002060620008401900206B
:10461000080200208C60000804150020050000201E
:10462000F3B587B017001E000F9D109C002D01D11F
:1046300072B6FEE7002C01D172B6FEE7542000905E
:104640000098542801D072B6FEE70098002C1AD0CA
:10465000002D18D004940498056302200499512277
:104660008854002003900498029005A801900E98A9
:10467000009033003A000899079800F03FF804983A
:1046800000F08AF801E000200590059809B0F0BD1F
:10469000F3B585B015001F00290089B204204843F6
:1046A00000F0CCFC0600002E0BD0542000F0C6FC1D
:1046B0000400002C01D0266304E0300000F030FD3F
:1046C00000E00024002C15D000205121605400206F
:1046D000039002940D9801900C9800903B002A00E2
:1046E00092B20699059800F009F8200000F054F8FD
:1046F000012001E00020C04307B0F0BDFFB581B04C
:104700000A9F0C9C206B0399042251434018001F00
:104710000721884300900098400701D072B6FEE759
:104720000298002811D000200500102D0AD202990D
:10473000495D62193423D1540299495D002901D0A1
:104740006D1CF2E74321605402E0002034216054E4
:10475000072F01D306200700E76267640026A664DE
:10476000201D00F02CFC2000183000F028FC2461F3
:104770000720C01BA0616462E66450202654049A9E
:104780000199009800F088FB20600B98002801D068
:104790000B98046005B0F0BD38B5040000F0B4FB20
:1047A00029480168491C0160284D2968002906D163
:1047B0002C60006801280CD100F04EFA09E027486F
:1047C0000068002805D1E06A2968C96A884200D3D8
:1047D0002C601F480168491C01601E480168E26A9C
:1047E000914201D2E16A0160211D1B48E26A142353
:1047F0005A43801800F0E6FB00F090FB1748006871
:10480000002806D02868C06AE16A884201D200F018
:1048100071FB31BD38B504000025002C0ED01048C6
:104820000068002801D072B6FEE700F051F80021C0
:10483000200000F0EDFA00F051F80500002D01D144
:1048400000F058FB31BD00001419002004190020AD
:10485000301900201C190020CC1500202019002040
:104860003C19002038B586B000240494039405AAAE
:1048700003A904A8FEF772F9844D049802900398E6
:104880000190002000900023059A81498148FFF79C
:10489000C7FE28602868002801D0012500E0250017
:1048A000012D0CD172B60020C0437B490860012065
:1048B0007A4908609B48046000F007FB05E000208F
:1048C000C043854201D172B6FEE707B030BD00009B
:1048D00030480168491C016070470000F8B50025A8
:1048E0002C0000952B4E3068002801D172B6FEE7EF
:1048F00000F00AFB3068401E30603068002845D167
:1049000025480068002841D024480168002922D0A9
:10491000C068C06804002000183000F07AFB201D39
:1049200000F077FB1E480168E26A914201D2E16A19
:104930000160211D1B48E26A14235A43801800F0CD
:1049400041FBE06A78490968C96A8842DCD30120E2
:1049500092490860D8E7002C01D000F0D7F9734FD6
:104960003E68002E0AD000F01FF8002802D0012077
:104970008A490860761E002EF5D13D6087480068A0
:10498000002803D00120009000F0B4FA00F0C6FA2D
:104990000098F2BD3C190020141900208018002056
:1049A0001C190020CC150020F8B500257C480068B3
:1049B00000285ED15B4807687F1C0760002F11D17B
:1049C000784801680968002901D072B6FEE70668D8
:1049D00075490A6802600E6074480168491C0160EC
:1049E00000F094F92C4E3068874236D36D48016848
:1049F0000968002903D10020C04330602DE0006821
:104A0000C068C0680400606800900098874202D2C5
:104A10000098306021E0201D00F0FBFAA06A002819
:104A200003D02000183000F0F4FA65480168E26A0B
:104A3000914201D2E16A0160211D6248E26A1423B9
:104A40005A43801800F0BEFAE06A37490968C96A1B
:104A50008842CBD301200500C8E733480068594994
:104A6000C06A142250430858022806D301200500CA
:104A700003E02E480168491C01604848006800288E
:104A800001D0012005002800F2BD000038190020E7
:104A9000B86400083F4C0008341900202019002099
:104AA00010B53F480068002803D001203B4908604A
:104AB00023E000203949086041480168414A142335
:104AC0004B43D358002B05D1002901D172B6FEE724
:104AD000491EF3E714234B43D21853685B685360B5
:104AE000536814000834A34202D153685B685360D2
:104AF0005268D2680C4B1A60016010BD38B50400D2
:104B00000D00002C01D172B6FEE7074800680100D5
:104B10001831200000F062FA0121280000F078F935
:104B200031BD0000181900200419002024190020AC
:104B300038B50400E068C568002D01D172B6FEE703
:104B40002800183000F065FA15480068002812D1D6
:104B5000281D00F05EFA1A480168EA6A914201D203
:104B6000E96A0160291D1748EA6A14235A4380182C
:104B700000F028FA04E029001831774800F022FA02
:104B800074480068C06AE96A884204D201210800BA
:104B9000304A116000E0002032BD000028190020DA
:104BA0003C190020081900200C1900202C190020A5
:104BB0006B490968016087490968416070470000D6
:104BC0001C190020CC150020F8B504000F00002CA3
:104BD00001D172B6FEE7002F01D172B6FEE700F0F8
:104BE00093F97C4805686068281A009038680021AD
:104BF000C943884201D1002619E05948006821685C
:104C0000884204D06068854201D301260FE00098F5
:104C10003968884208D238680099401A3860200004
:104C2000FFF7C6FF002602E000203860012600F0F2
:104C300075F93000F2BD012006490860704710B5D3
:104C4000040000F02BF8644800680228F9D300F053
:104C500051F9F6E72819002070B50024072C07D277
:104C60005D4814216143401800F09AF9641CF5E78F
:104C70005A4E300000F094F9594D280000F090F998
:104C8000354800F08DF9574800F08AF9564800F091
:104C900087F9564806605648056070BD38B5554DD1
:104CA0002868002815D000F02FF94E48C068C06869
:104CB0000400201D00F0ADF94F480168491E016055
:104CC0002868401E286000F029F9200000F002F852
:104CD000E5E731BD10B504005120205C002806D165
:104CE000206B00F01DFA200000F01AFA0DE05120B0
:104CF000205C012803D1200000F012FA05E05120C9
:104D0000205C022801D072B6FEE710BD00B537491D
:104D10000A681268002A04D10021C943374A116089
:104D200006E00968C968C96808004168334A11602B
:104D300000BD00B533480068002801D1012006E01D
:104D400006480068002801D1022000E0002000BDD4
:104D50000000000004190020801800203C190020E9
:104D60002C19002070B5060034000025002E2ED02E
:104D700023480068844201D072B6FEE7A06C002888
:104D800001D172B6FEE7A06C401EA064E06A616CBF
:104D900088421CD0A06C002819D1201D00F039F9E0
:104DA000606CE0620720E16A401AA0611648016861
:104DB000E26A914201D2E16A0160211D1348E26A70
:104DC00014235A43801800F0FDF801200500280044
:104DD00070BD000018190020CC15002058180020C4
:104DE0006C18002094180020A81800200819002032
:104DF0000C1900201019002014190020341900206B
:104E000004190020201900201C190020CC150020B6
:104E1000F8B504000F0019480568174E3068001DEA
:104E200000F0F7F80020C043844207D1002F05D0DE
:104E30003068011D124800F0C5F81BE028190090E9
:104E40000098316848600098A84206D23068011D79
:104E50000C48006800F0C2F80CE03068011D0A48F8
:104E6000006800F0BBF8094800990268914201D23D
:104E700000990160F1BD00000419002018190020FC
:104E8000A81800200C19002008190020341900204F
:104E90007047704770477047001F80235B040360B2
:104EA000001F0160001F364B036014380260203879
:104EB0007047000000B5334800680021C9438842AC
:104EC00001D072B6FEE772B6FEE780B52E480168E3
:104ED000FF2212040A4302600168FF2212060A43FD
:104EE000026000F03AF800202649086000F00DFA50
:104EF000002002BD8020400524490860BFF34F8F89
:104F0000BFF36F8F7047000072B61E480168491CDE
:104F10000160BFF34F8FBFF36F8F704700B5194823
:104F20000168002901D172B6FEE70168491E0160DF
:104F30000068002800D162B600BD10B500F0F6F997
:104F40000400FFF731FD002803D0802040050F4901
:104F50000860200000F0EEF910BD10B50C4C0020E8
:104F600020600C4908600C480068FA218900FCF7B1
:104F7000D0FD401E094908600720206010BD0000D8
:104F8000B54E00083C03002020ED00E004ED00E0F9
:104F900010E000E018E000E04403002014E000E02E
:104FA0000100083141600021C943816001000831DE
:104FB000C1600100083101610021016070470021DA
:104FC0000161704742684A6093688B6093685960DA
:104FD0009160086103685B1C0360704710B50A6844
:104FE0000023DB439A4201D1036907E00300083341
:104FF0005C682468A24201D35B68F9E75C684C6096
:105000004C68A1608B60596008610468641C04608E
:1050100010BD00B5010008698A684B689A604A684B
:105020008B685A6042688A4201D18A6842600022D5
:105030000A610268521E0260006800BDFEB50500EC
:1050400000260296FFF744FC7C480068002801D146
:1050500000F096F87A4800682840002856D1002DC4
:105060000ED0784800682D180720054208D0290086
:10507000083105404D1B2840002801D072B6FEE7DC
:10508000002D43D0704F3868A8423FD36F4801903D
:10509000006804006068A84205D22068002802D099
:1050A00001942468F6E76548006884422ED065487C
:1050B000019909680268891802912168019A1160B2
:1050C000006840006168491B88420ED26019009058
:1050D0000098400701D072B6FEE76068401B009957
:1050E00048606560009800F07AF838686168401A96
:1050F0003860574839680268914201D239680160C6
:1051000060684F490968014361602660FFF7E6FB6C
:105110000298400701D072B6FEE70298FEBD00007B
:1051200070B505002E00002D29D046480068414288
:10513000761834004248616802680A40002A01D1AA
:1051400072B6FEE72168002901D072B6FEE76168F9
:1051500002680A40002A12D0216800290FD1616834
:10516000006881436160FFF7B3FB374801686268FC
:1051700089180160200000F032F8FFF7AFFB70BD26
:1051800070B5C0200001334A11004B075B0F002BA4
:1051900004D0C91D07239943401A80180A002B4CDC
:1051A0002260002363601418264D2D68641B0725B8
:1051B000AC43224D2C602E6873602E683360130060
:1051C000E61A5E602D681D605D68214E35605D6881
:1051D0001D4E356080252D06194E356070BD30B5E9
:1051E0001A490A68824201D20968FAE70A004B6844
:1051F000D318834204D14B6844681B194B600800E4
:10520000030044681C190D68AC4210D10B4A0C68AD
:105210001568AC4208D042680C6864681219426094
:105220000A681268026004E01268026001E00A681D
:105230000260814200D0086030BD0000E818002004
:10524000F4180020DC640008EC180020CC180020C2
:10525000F0180020E403002010B5040000F086F8E8
:1052600001002000096A884710BD10B5040000F055
:105270007DF801002000896A884710BDC9B2521E1E
:1052800005D30378401C8B42F9D1401E70470020A3
:10529000704770477047FEE770B50400FBF7A2FE49
:1052A000050026000020C043864202D00448007852
:1052B0003618FBF797FE401BB042FAD370BD00BF13
:1052C000E303002080F308887047EFF309801B4B4D
:1052D0001A6820381060F0C044464D4656465F4676
:1052E000F0C008B572B6FFF7DBFB62B60CBC116804
:1052F00008681030F0C8A046A946B246BB4680F305
:1053000009882038F0C8184770470C4B196808689E
:10531000203080F30988022080F31488BFF36F8F58
:105320003FBCAE4608BC04BC62B61847EFF3108021
:1053300072B6704780F3108870470000041900208F
:10534000FFE741381A288041C00F70470100093932
:10535000052901D3202801D1012070470020704782
:10536000010041391A2900D22030704700487047A7
:105370009803002000000000000000000000000072
:10538000000000000000000000000000000000001D
:105390000000000001000000D464000803000000C9
:1053A00088130000D864000802000000000000001C
:1053B0000000000002000000746300080900000003
:1053C00088130000B46200080C0000000000000018
:1053D0000000000003000000C46200080D0000008F
:1053E00088130000D86400080200000000000000DC
:1053F0000000000004000000806300080C000000B2
:1054000088130000D86400080200000000000000BB
:1054100000000000050000008C6300080A00000086
:10542000E02E000098630008090000000000000062
:1054300000000000060000006C6100081B00000076
:1054400088130000D864000802000000000000007B
:105450000000000007000000D46200080C000000FB
:1054600088130000D864000802000000000000005B
:105470000000000008000000E46200080F000000C7
:1054800088130000D864000802000000000000003B
:105490000000000009000000F46200080C00000099
:1054A00088130000D864000802000000000000001B
:1054B000000000000A0000007864000806000000F8
:1054C00088130000D86400080200000000000000FB
:1054D000000000000B000000A46300080A000000A8
:1054E00088130000D86400080200000000000000DB
:1054F000000000000C000000B06300080B0000007A
:1055000010270000D864000802000000000000001E
:10551000000000000D000000886100081A00000073
:1055200088130000D864000802000000000000009A
:10553000000000000E0000003062000816000000AD
:1055400088130000D864000802000000000000007A
:10555000000000000F000000A46100081800000017
:1055600088130000D864000802000000000000005A
:105570000000000010000000046300080E0000009E
:105580008813000000000000000000000000000080
:105590002D5B00081100000080640008040000007A
:1055A00000350C00BC6300080B0000000000000088
:1055B000915B000812000000146300080D00000059
:1055C00088130000C8630008080000000000000005
:1055D0000000000013000000246300080C0000001D
:1055E00088130000261100080100000000000000E0
:1055F000DD5B0008140000001265000801000000D7
:1056000060EA0000D46300080A0000000000000007
:105610000000000015000000246300080C000000DA
:10562000881300002611000801000000000000009F
:10563000055C00081600000012650008010000006B
:1056400060EA000088640008070000000000000015
:105650005F5C000817000000246300080C000000D5
:10566000881300002611000801000000000000005F
:10567000835C0008180000001265000801000000AB
:1056800030750000486200081700000000000000AC
:105690000000000019000000246300080C00000056
:1056A000881300002611000801000000000000001F
:1056B000B15C00081A00000012650008010000003B
:1056C00060EA000088640008070000000000000095
:1056D000F95C00081B000000346300080E000000A5
:1056E000881300000000000000000000000000001F
:1056F000000000001C000000E06300080B00000038
:10570000E8030000D8640008020000000000000068
:10571000000000001D000000EC6300080B0000000A
:10572000E8030000D8640008020000000000000048
:10573000000000001E000000DC60000821000000E6
:10574000E8030000D8640008020000000000000028
:10575000000000001F000000F86300080A000000BD
:10576000E8030000046400080B00000000000000D3
:105770000000000070B504000026207A032802D142
:105780000C20060004E0207A042801D10A2006003B
:1057900020000C3007C800F0BAF9801C3518E07EF4
:1057A00000280ED02000243007C800F0B0F9060011
:1057B0002000303007C800F0AAF93018001D281862
:1057C0000500206C002802D1A06C002807D0200022
:1057D000403007C800F09BF9801C28180500E06CD9
:1057E000002802D1606D002807D020004C3007C887
:1057F00000F08DF9801C28180500280070BDF0B558
:1058000085B006000F0014000096754800680290ED
:10581000744800680190002503950020C04304905F
:105820002000FFF7A7FF039000F006F9874202DA95
:105830000120C043A6E02800694608720298F021C2
:1058400088431021014302916846017A684600F0BE
:1058500006F90399009800F0D5F80099081800900F
:10586000207A042808D12100684600F016F9217A30
:10587000684600F0F4F807E05B49684600F00DF96F
:105880000321684600F0EBF8280069460871A17E04
:105890000198022290434900022211400143E07E18
:1058A000002801D00125FFE704208143A80004223D
:1058B00010400843019001250198800828400028E5
:1058C00011D03D20215C019818229043CA00182174
:1058D000114001433C20205C2022914340012022C2
:1058E000104008430190206C002802D1A06C0028D1
:1058F00003D00198802101430191E06C002802D17E
:10590000606D002803D00198402101430191684651
:105910000179684600F0A3F8218B684600F0A5F8ED
:1059200020000C300EC80C38684600F0CDF8E07E40
:1059300000280DD0200024300EC80C38684600F036
:10594000C3F8200030300EC80C38684600F0BCF8B0
:105950000198C0092840002806D0200040300EC819
:105960000C38684600F0B0F8019880090540002D19
:1059700006D020004C300EC80C38684600F0A4F861
:105980000098801B05B0F0BDFEB504000E001700A6
:105990001648006801900025ED430094022E02DABB
:1059A0000120C0431AE00020694608710198F021E7
:1059B00088433900C9B20901F0220A40024301922A
:1059C00068460179684600F04AF80021009800F026
:1059D00019F80099081800900098001BFEBD0000FF
:1059E000E0640008E4640008A8640008E8640008B3
:1059F00038B505000C000C2221002800FFF7C4FF79
:105A000032BDFEE7F1B50D000024802728003900E3
:105A1000FCF77CF80E0028003900FCF777F8050049
:105A2000012D02DB30003E00064300980655641C41
:105A3000012DEADA2000F2BD00B5401C802801DA11
:105A4000401C0BE08021C901884201DA801C05E07E
:105A50003549884201DAC01C00E0001D00BD026823
:105A600011700268521C0260704770B504000D008E
:105A70008026760028003100FCF748F8216808707D
:105A80002068401C206028003100FCF73FF82068A7
:105A900001702068401C206070BDFEB504000E003F
:105AA0003000FDF7D7FC050029002000FFF7DDFFDF
:105AB000019500962768019A00993800FDF7BCFC13
:105AC000206840192060F7BDFEB504000198012848
:105AD00010DB01992000FFF7C8FF019D029E276897
